:020000042000DA
:1000000098C00020A1010020890D00208B0D002048
:100010008D0D00208F0D0020910D002000000000AC
:10002000000000000000000000000000930D002010
:10003000950D002000000000970D0020A92300204E
:10004000C9010020C9010020C9010020C901002008
:10005000C9010020C9010020C9010020C9010020F8
:10006000C9010020C9010020C9010020C9010020E8
:10007000C9010020C9010020C9010020C9010020D8
:10008000C9010020C9010020C9010020C9010020C8
:10009000C9010020C9010020C9010020C9010020B8
:1000A000C9010020C9010020C9010020C9010020A8
:1000B000C9010020C9010020C9010020C901002098
:1000C000C9010020C9010020C9010020C901002088
:1000D000C9010020C9010020C9010020C901002078
:1000E000C9010020C9010020C9010020C901002068
:1000F000C9010020C9010020C9010020C901002058
:10010000C9010020C9010020C9010020C901002047
:10011000C9010020C9010020C9010020C901002037
:10012000C9010020C9010020C9010020C901002027
:10013000C9010020C9010020C9010020C901002017
:10014000C9010020C9010020C9010020C901002007
:10015000C9010020C9010020C9010020C9010020F7
:10016000C9010020C9010020C9010020C9010020E7
:10017000C9010020C9010020C9010020C9010020D7
:10018000C9010020C9010020DFF810D002F0F8FEFC
:1001900000480047D9130020AFF3008098C000202A
:1001A0000A48016841F470010160BFF34F8FBFF34B
:1001B0006F8F07480047FEE7FEE7FEE7FEE7FEE732
:1001C000FEE7FEE7FEE7FEE7FEE7000088ED00E061
:1001D00089010020DA490028086814BF40F48070C3
:1001E00020F4807008607047D5490028086814BF63
:1001F00040F4007020F4007008607047D048016837
:1002000041F4006101607047CE48006810F0004F73
:1002100008BF7047CC49CD480160CD4901607047A7
:10022000C848016841F0004101607047C949092090
:100230000A6812F4803F1CBF012070470A6812F060
:10024000100F1CBF062070470A6812F4807F1CBF85
:10025000022070470A6812F0EF0F1CBF072070479A
:10026000096811F0020F18BF0820704781B00920FB
:100270008DF800000146B748026812F4803F18BFAD
:10028000012116D1026812F0100F18BF062110D1FB
:10029000026812F4807F18BF02210AD1026812F0AE
:1002A000EF0F18BF072104D1026812F0020F18BF28
:1002B00008218DF800109DF80010012923D1026853
:1002C000092112F4803F18BF012116D1026812F0F3
:1002D000100F18BF062110D1026812F4807F18BFDA
:1002E00002210AD1026812F0EF0F18BF072104D1D2
:1002F000026812F0020F18BF08218DF800109DF857
:1003000000100129DBD09DF8000001B0704700B556
:100310000346FFF7ABFF092818BF00BD8E480360F6
:10032000884B186820F440701860186840F002008C
:100330001860186840F480301860FFF797FF19685C
:1003400021F00201196000BD00B5FFF78FFF0928F9
:1003500018BF00BD7B4B186820F440701860186807
:1003600040F004001860186840F480301860FFF70F
:100370007DFF196821F00401196000BD10B50C461D
:100380008446FFF773FF092818BF10BD6D4B18682E
:1003900020F440701860186840F400701860186805
:1003A00040F001001860CCF80040FFF75FFF1968CB
:1003B00021F00101196010BD10B50C468446FFF70D
:1003C00055FF092818BF10BD5E4B186820F4407017
:1003D0001860186840F480701860186840F00100D8
:1003E0001860ACF80040FFF741FF196821F00101E7
:1003F000196010BD10B58C460446FFF737FF092879
:1004000018BF10BD4F4B186820F440701860186872
:100410001860186840F00100186084F800C0FFF709
:1004200025FF196821F00101196010BD4B480068D3
:1004300010F0010F08BF704749494A4801604A4916
:10044000016070474548016841F001010160704753
:1004500000B50B468446FFF709FF092818BF00BD09
:100460004CEA03004149087000BD00B50B468446C4
:10047000FFF7FCFE092818BF00BD3D48C0F800C0CA
:10048000001D036000BD00B50B468446FFF7EEFE7D
:10049000092818BF00BD3748C0F800C0001D036020
:1004A00000BD00B50346FFF7E1FE092804BF32484E
:1004B000037000BD034600B5FFF7D8FE092804BF4E
:1004C0002E48037000BD134610B58C460446FFF756
:1004D000CDFE092818BF10BD2048017801F00F019A
:1004E0004CEA010119432143017010BD1B480178FA
:1004F00041F002010170B9E618480068C0F34710E6
:1005000070471A48008870471C4900200978AA29BA
:1005100018BF0120704700290A4A116814BF084318
:1005200021EA0000106070470A4A01460020126864
:100530000A4218BF01207047064908607047000052
:10054000003C0240103C024023016745043C02404D
:10055000AB89EFCD0C3C0240283C0240143C0240E9
:100560003B2A1908083C02407F6E5D4C163C024055
:10057000343C02403C3C0240173C0240153C0240E7
:1005800010B5A0F18041B1F5003119D0A0F1804142
:10059000B1F501311ED0A0F18041B1F5023123D077
:1005A000A0F18041B1F5033118BF10BD0121082031
:1005B00000F0F9F90021BDE81040082000F0F3B97F
:1005C0000121084600F0EFF90021BDE810400120AC
:1005D00000F0E9B90121022000F0E5F90021BDE8B1
:1005E0001040022000F0DFB90121042000F0DBF907
:1005F0000021BDE81040042000F0D5B92DE9F0013C
:10060000002201255FF00306D1F800C005FA02F3CD
:100610000CEA030C9C4537D107684FEA420C06FAF6
:100620000CF4A74307600F79D0F8008007FA0CF7A5
:1006300047EA080707600F79012F18BF022F17D16B
:10064000876827EA040787604F79D0F8088007FA9F
:100650000CF747EA08078760476827EA0303436007
:1006600043688F7907FA02F7BFB243EA0703436092
:10067000C36823EA0403C360CB7903FA0CF3D0F810
:100680000CC043EA0C03C36002F10102102ABBD381
:10069000BDE8F00170474FF6FF7101600021017164
:1006A00041718171C171704781B041F48032009213
:1006B000C261C1610099C161C169C069009001B0A6
:1006C00070470246002012690A4218BF0120704795
:1006D000006980B270470246002052690A4218BF82
:1006E00001207047406980B27047018370474183A1
:1006F0007047002A14BF01834183704741617047EE
:1007000042695140416170474B07DB0E9A40C9086E
:1007100000EB8100016A4FF00F0C0CFA03F39943D0
:100720000162016A1143016270470000CA48016812
:1007300041F001010160C94A00211160026822F400
:10074000102222F0A8520260031DC54A1A60C64B4F
:10075000C44A1A60026822F480220260C348016021
:100760007047C34900220A7008707047002241098F
:10077000012904BFB849096804D002290CBFBD494A
:10078000BD49096800F01F00012303FA00F0084288
:1007900018BF01221046704781B00020AE4900907A
:1007A00000200A6812F4003F18BF0120009A521C72
:1007B0000092B2F5A04F01D00028F1D0086810F4E3
:1007C000003018BF012001B07047A3490A6822F029
:1007D000F80242EAC00008607047A8490860704704
:1007E000A449012803D004280CBF052070470860E5
:1007F0007047A3490860704741EA82115A08A14B2B
:10080000DDF800C003EB0242114308439E4940EA71
:100810000C60086070479949086670479749886678
:10082000704770479549086770479449C864704796
:100830008A4A1368084323F0EC631843106070473A
:10084000864A1368084323F07843184310607047C2
:1008500082490A6822F003021043086070477F480B
:10086000006800F00C0070477C490A6822F0F00232
:1008700010430860704779490A6822F4E052104337
:100880000860704775490A6822F4604242EAC00075
:1008900008607047714A30B411687C4B11F00C014C
:1008A00006D05C10042908BF046002D008291ED0BD
:1008B000036011680F2303EA1111754B595CD0F8DE
:1008C00000C02CFA01F14160D2F800C0072404EA0C
:1008D0009C2C13F80CC021FA0CFCC0F808C012685C
:1008E00004EA52329A5CD140C16030BC704766491C
:1008F000D1F800C0CCF38055D1F800C0002D0CF029
:100900003F0C14BFB4FBFCF3B3FBFCF3D1F800C005
:100910000968CCF3881C03FB0CF3C1F30141491CAB
:100920004900B3FBF1F10160C3E74FF4407181432B
:1009300018BF704749490A6820F4407022F4F81241
:1009400020F07040104308607047524908607047BB
:100950005149086070475149C1F8E0017047504A59
:100960000029116814BF084321EA00001060704795
:100970004C4A0029116814BF084321EA00001060A6
:100980007047494A0029116814BF084321EA000052
:1009900010607047454A0029116814BF084321EAD6
:1009A000000010607047424A0029116814BF0843D4
:1009B00021EA0000106070473E4A0029116814BF08
:1009C000084321EA0000106070473B4A0029116883
:1009D00014BF084321EA000010607047374A00291D
:1009E000116814BF084321EA000010607047344AC0
:1009F0000029116814BF084321EA00001060704705
:100A0000304A0029116814BF084321EA0000106031
:100A100070472D4A0029116814BF084321EA0000DD
:100A200010607047294A0029117814BF084321EA51
:100A30000000107070471048016841F0807101603B
:100A400070470A4A0146002012680A4218BF012076
:100A500070471F490870704700380240083802404C
:100A60001030002400300020583802400C3802407A
:100A7000023802404C3802405038024000004742E1
:100A8000800E47420000FFFF043802400024F400BB
:100A9000048000203C0E4742400E4742001047426F
:100AA00024380240283802403038024034380240AE
:100AB00010380240143802401C38024020380240EE
:100AC0003838024044380240483802400D3802406D
:100AD0000E38024010B5A0F18041B1F588311FD029
:100AE000A0F18041B1F5884124D0A0F18041B1F559
:100AF00090412AD0A0F18041B1F5984130D0A0F1C9
:100B00008041B1F5A04118BF10BD01210805FFF7D4
:100B10005CFFBDE8104000214FF48010FFF755BF87
:100B200001211020FFF75AFF0021BDE810401020DE
:100B3000FFF754BF01214804FFF747FFBDE810400D
:100B400000214FF40030FFF740BF01218804FFF778
:100B50003CFFBDE8104000214FF48020FFF735BF77
:100B60000121C804FFF731FFBDE8104000214FF418
:100B70000020FFF72ABF4A890B88B1F808C042EA73
:100B80004322CB88DB0143EA8C131A438B891A4337
:100B900002604A88C2608988016170470268002348
:100BA00003600B88B1F804C05B04896843EA0C4316
:100BB00043EAC13101600168114301607047002AB6
:100BC000026814BF114322EA010101607047002A44
:100BD000826814BF114322EA010181607047024616
:100BE0000020D2690A4218BF01207047026A22EA37
:100BF0000101016270470164704700214164704740
:100C0000082928BF7047DFE801F004080A0A0E101F
:100C10001214006DC0F308007047406D00E0806D55
:100C2000C0F308007047006EFAE7406EF8E7806E88
:100C3000F6E7C06EF4E7C1F308018162704700294E
:100C4000416814BF41F0100121F01001416070476C
:100C50000029416814BF41F0200121F020014160CA
:100C60007047002A826B14BF114322EA010181639D
:100C70007047826B8163816B1143816370470029E8
:100C8000816B14BF41F0010121F0010181637047C4
:100C900041F48061816270474FF400718162704756
:100CA00001637047416370470029416814BF41F0F8
:100CB000010121F00101416070470029016814BF62
:100CC00041F4804121F48041016070472B4940F09C
:100CD000FD7040F080600860704710B4C278017801
:100CE0000F244FF0010C0AB3244A126801F1E021ED
:100CF00002F4E062C2F5E062C2F30722C2F104032B
:100D0000D44042789A40837823401A43120181F8F4
:100D10000024007800F01F010CFA01F14009800066
:100D200000F1E020C0F8001110BC704701F01F0076
:100D30000CFA00F04909890001F1E021C1F88001B5
:100D400010BC704721F07F0121F0604108430C493D
:100D5000086070470B4A0029116814BF084321EA54
:100D60000000106070474FF0E021042808690CBFB4
:100D700040F0040020F00400086170470CED00E032
:100D800008ED00E010ED00E07047FEE7FEE7FEE74B
:100D9000FEE770477047704770B501218CB0084678
:100DA000FFF7DDFD01211020FFF7F4FD2F4E062295
:100DB00002213046FFF7A8FC062203213046FFF748
:100DC000A3FC00248DF8064001208DF807000420C4
:100DD000022500908DF8045003208DF80500694627
:100DE0003046FFF70BFC082000908DF80450694650
:100DF0003046FFF703FC06A8FFF74CFD09981C4A94
:100E000000EBC00101EB00104FF4E121B0FBF1F069
:100E1000A2FB0031C1F34F116FF018034B4300EBFD
:100E20008300322303EB0010A2FB0020C0F3431029
:100E3000ADF80840ADF80C00ADF81040ADF80E402C
:100E4000ADF81440ADF812400A4CADF80A1002A9F2
:100E50002046FFF790FE012211462046FFF7AFFE25
:100E600002212046FFF7C2FE0CB070BD0000024018
:100E70001F85EB510010014070B5104D0446C1B202
:100E80002846FFF7D8FE02212846FFF7A8FE0028D3
:100E9000F9D002212846FFF7A9FE204670BD10B503
:100EA000064C04212046FFF79AFE0028F9D0204680
:100EB000BDE810400021FFF7A3BE00000010014074
:100EC000F0B5B0F900600746C6F3C01083B00C4619
:100ED00000281EBF06F07F0003B0F0BD16F007002B
:100EE000C6F3C30141EA011112D0012818BF3546EB
:100EF00022D0218FA8B201F035FD208705F07F00B8
:100F000006F47F41014341F08001398003B0F0BD18
:100F10002229B8BF2221208FCDE90010D4E9051085
:100F2000B4F90230B4F9002001F0FAFB05B2E08F09
:100F3000002808BFE587DCE7228F04F1280001F0D4
:100F4000CCF905B2A08F002808BFA587D1E770B5FE
:100F50000E4615461146FFF7B3FF044629463046B4
:100F6000FFF7AEFF201A70BD6AB9028802F47F4312
:100F7000C2F307221A4302800A8802F47F43C2F3B5
:100F800007221A430A80B0F90200B1F90210401A90
:100F900070470A8802804988418070472DE9F74FE1
:100FA00082464FF0010900BF5FEA0A054FF0000AD0
:100FB0005746D3463FD000262C4630460BF1010B56
:100FC000B9F1000FD8BFC84624DD2468761C002C78
:100FD0001CBF401C4845F8DBC846002E1ADD7EB118
:100FE000B8F1000F18BF002C06D0DDE901326168AE
:100FF00068689847002803DC28462D68761E03E0C1
:1010000020462468A8F10108002F14BF38608246EA
:101010000746E2E7B8F1000F02DD002CDFD101E066
:101020002500C8D100203860BBF1010FC8BF4FEACE
:101030004909B9DC01E00020006003B05046BDE87A
:10104000F08F42684B6843604A600A68026008603B
:101050007047B1F90220002A0ADB002808BF704758
:101060004168B1F90210914218BF0068F5D170478C
:10107000002808BF70474268B1F9003012789A42E0
:1010800018BF0068F4D17047D0E900124B68436084
:101090004A600268126802600020086008467047D3
:1010A000002120B10268016001461000FAD1084613
:1010B00070472DE9F05F4FF0000C8A46B0F904B09C
:1010C00067463E46456A0246E146E0466AF31F46E9
:1010D0006146BBF1000F44DDC8B260F30F062C4639
:1010E000331408D484B16068B0F90200984218BF84
:1010F0002468F7D108E03CB1D4F804E09EF800E0A1
:10110000864518BF2468F6D1002035B1D5F800E037
:10111000286028465FEA0E05F8D10546002C49D024
:1011200009F101001FFA80F96068B0F9000010F0C1
:10113000010F04D0C0F3402060441FFA80FC2068F7
:1011400030B1D0F800E0C4F800E02C6804602860FA
:10115000002BA4BF581C60F31F46481C01B2594520
:10116000BADBC8EB890060441FFA80F8BAF1000FBF
:1011700005DDAFF225212846FFF710FF0546286858
:10118000D0E90091D9F804204260C9F80410016840
:10119000096801602846C9F80070311448BF31B2AF
:1011A00015D4E8B14268B2F902208A4218BF00683B
:1011B000F7D113E008F101001FFA80F828684068B1
:1011C0000088C0F3002060441FFA80FCC0E738B1FB
:1011D000426812788A4218BF0068F8D1044601E0DC
:1011E0002C684CB168684146B0F9000001F0DFFBA3
:1011F00024688046002CF5D12868D9F8041042688C
:10120000C9F8042041600168C9F800100022AFF25B
:10121000A721C0F800902846FFF7C0FE04680546E5
:101220004CB168684146B0F9000001F0C0FB246889
:101230008046002CF5D14046BDE8F09F70B484464E
:10124000DDE90365106800F10804B44203D21E68AA
:10125000361DAE4202D370BC002070471460DCF82B
:1012600000200260CCF800001A6842601A68121D63
:101270001A6042680B8813804988518070BC70479F
:101280002DE9F00F1423B0FBF3F0871E01EBC70428
:1012900000234C600B606380D1F804C048F28003E7
:1012A0000846ACF8003001F1080C231D103104EBA6
:1012B000870547F6FF794FF0FF36A1423CBF03F1A7
:1012C0000408A8450DD26146D0F80080C1F800801E
:1012D00001604B6019460CF1080C0E801B1DA1F833
:1012E00002900021002F22D982EA010606F00F08A1
:1012F0000E4668F3DF0646EA062A0CF10806A64207
:101300003CBF03F10408A8450ED2E0460668C8F8C1
:101310000060C0F80080C8F80430A3F800A0A3F86B
:1013200002900CF1080C1B1D491CB942DCD3036868
:101330000121D3F800C0BCF1000F1FD0DFF848C076
:10134000ACFB074C4FEA9C048C4205D9D3F804C08F
:10135000ACF80210491C0BE081EA020C491C01F0B8
:1013600007054CEA052C5D68CCF30D0CA5F802C00E
:101370001B68D3F800C0BCF1000FE5D10022AFF22A
:101380001741BDE8F00F09E6CDCCCCCC0000000041
:1013900070B50446C669002020876087A087E08773
:1013A0000546002E16D901212046FFF782FE218F27
:1013B00001F0D8FA20874FF0FF312046FFF779FE81
:1013C000218F01F0CFFA2087002D08BF60876D1CA8
:1013D000B542E8D3002070BD2DE9F34F00252DED77
:1013E000068BADF6240D0A462C464FF0FF38A94671
:1013F0000DF63C0102AF0DF14A0001F048F8012062
:1014000001F08AFAADF80800022001F085FAADF883
:101410000A00032001F080FAADF80C00042001F06E
:101420007BFA0990052001F077FA0A90002804BFA2
:1014300007200A90BDF8081066204FF0000A002926
:1014400001BFBDF80A100029BDF80C10002905D114
:10145000ADF808A0ADF80AA0ADF80C00BDF8081072
:10146000012901BFBDF80A100029BDF80C100029A0
:1014700007D143F21541ADF80810ADF80A10ADF8E8
:101480000C0014A804904FF4FA600890BDF808000E
:10149000ADF80800BDF80A00ADF80A00BDF80C0070
:1014A000ADF80C000A98ADF848A010F0010F4FF00D
:1014B000010B18BF01240A9810F0020F18BF641C1A
:1014C0000A9810F0040F18BF641C0898B0FBF4F0E1
:1014D00008900A9810F0010F06D00899049801FBB3
:1014E00005004FF0010505900A9810F0020F06D094
:1014F0000899049801FB050005F1010506900A987A
:1015000010F0040F04D00899049801FB050007901F
:101510004FF0000505EB051607EB860494F8200054
:1015200010F0010F06D037F92620E1680898FFF780
:10153000A7FE606294F8200010F0020F0AD037F97D
:101540002600618804F1280340EA014221690898D5
:1015500000F0D4FE94F8200010F0040F05D037F905
:1015600026106269089801F051F9681C05042D0CD9
:10157000D0D09FEDFDAB0998002852D1B0EE4A8A39
:10158000F0EE6A8A9FEDFA9BCDF824B034E009981A
:1015900000EB80004000099000F00BFF099EADF8C1
:1015A00040A0ADF844A0002502ACADF842A0ADF8D3
:1015B00046A0002E16D901212046FFF77AFD218F83
:1015C00001F0D0F920874FF0FF312046FFF771FD81
:1015D000218F01F0C7F92087002D08BF60876D1C9F
:1015E000B542E8D300F0FEFE00F005FF00F006FF74
:1015F000B0EE408AF0EE608A53EC192B51EC180BD8
:1016000001F0A8FAC3D351EC180B01F089FA0028B5
:1016100008BF01200A21B1FBF0F00999401C4843A2
:10162000099000F0C6FE099DADF840A0ADF844A0B9
:10163000002602ACADF842A0ADF846A0002D16D9A8
:1016400001212046FFF735FD218F01F08BF920871E
:101650004FF0FF312046FFF72CFD218F01F082F97A
:101660002087002E08BF6087761CAE42E8D300F0CA
:10167000B9FE00F0C0FE0090BDF90800002101F0A5
:1016800096F9BDF90A200146104601F090F9BDF91E
:101690000C200146104601F08AF90146089800B274
:1016A00001F085F947F60532811AB34D0190904259
:1016B00004BF4FF00108B1A028D012DC00F20E7078
:1016C000B0F5005004BF4FF00408B7A01ED000F6DC
:1016D0004320B0F5804F04BF4FF00208BDA015D0E5
:1016E0000BE0A1F56060FD380AD00D30B0F5C04FB9
:1016F00004BF4FF00308C4A008D04FF0FF395AE0F0
:101700004FF00008CCA001F06FFC01E001F06CFC90
:101710002868002818BF002488BFDFF84CB34AD9D6
:1017200004EB041007EB8006A6F840A096F8200012
:1017300010F0010F0DD0728F3BF818309A4208D08C
:101740002146CAA001F050FCB6F84000401CA6F8A3
:10175000400096F8200010F0020F0ED0CF48B28F54
:1017600030F818309A4208D02146CDA001F03CFC58
:10177000B6F84000401CA6F8400096F8200010F093
:10178000040F0ED0D348F28F30F818309A4208D0A8
:101790002146D1A001F028FCB6F84000401CA6F874
:1017A0004000B6F8400048440FFA80F9601C84B24B
:1017B00028688442B4D301F02BF9484406B2D2A081
:1017C000089901F011FCD6A0009901F00DFC0098D9
:1017D00000F014FE53EC102BD7A001F005FC00988C
:1017E00000F00CFE53EC1A2B51EC100B01F0CAF96F
:1017F00016D2009800F002FE09982968B0EE408ADF
:10180000F0EE608A484301F07EF953EC182B01F0AA
:101810000BF941EC100BCEA053EC102B01F0E4FBC4
:10182000009800F0EBFD9FEDD01B51EC100B53EC3A
:10183000112B01F08FF904D2CDA001F0D5FB701C63
:1018400006B2099829684143D9A001F0CDFBDEA179
:10185000E9A001F0C9FBEEA1EEA001F0C5FBF3A1E8
:10186000F4A001F0C1FBF9A0019901F0BDFB0A98B9
:1018700010F0010F1EBF2868002800240ED900BFF9
:1018800004EB041007EB80002146428FF6A001F024
:10189000ABFB601C84B22868A042F1D80A9810F013
:1018A000020F1EBF2868002800240DD904EB041085
:1018B00007EB80002146828FF2A001F095FB601CAF
:1018C00084B22868A042F1D80A9810F0040F13D00F
:1018D0002868002818BF002422D00FD904EB041078
:1018E00007EB80002146C28FEDA001F07DFB601C5C
:1018F00084B22868A042F1D8286888B10024002862
:101900000ED900BF04EB041007EB80002146028FC4
:10191000EAA001F069FB601C84B22868A042F1D8FB
:10192000002EC8BFECA004D01ADD00BF01F05CFBA4
:10193000F6E1EE4801F058FBB8F1030F11D1009821
:1019400000F05CFD09982968B0EE408AF0EE608AEC
:10195000484301F0D8F853EC182B01F065F8C7E1C3
:10196000DBE1DDE1000000000000000000000000FD
:10197000000000000000F03F48800020366B207619
:10198000616C69646174696F6E2072756E2070613C
:1019900072616D657465727320666F7220636F7219
:1019A000656D61726B2E0A00324B2076616C696442
:1019B0006174696F6E2072756E20706172616D6501
:1019C0007465727320666F7220636F72656D6172E9
:1019D0006B2E0A0050726F66696C652067656E65D4
:1019E000726174696F6E2072756E20706172616DC4
:1019F000657465727320666F7220636F72656D61C6
:101A0000726B2E0A00000000324B20706572666F08
:101A1000726D616E63652072756E20706172616DAA
:101A2000657465727320666F7220636F72656D6195
:101A3000726B2E0A00000000366B20706572666FB4
:101A4000726D616E63652072756E20706172616D7A
:101A5000657465727320666F7220636F72656D6165
:101A6000726B2E0A00000000148000205B25755D5B
:101A70004552524F5221206C697374206372632067
:101A8000307825303478202D2073686F756C642091
:101A90006265203078253034780A00001E800020EE
:101AA0005B25755D4552524F5221206D61747269FC
:101AB000782063726320307825303478202D2073AD
:101AC000686F756C64206265203078253034780A40
:101AD00000000000288000205B25755D4552524FB4
:101AE00052212073746174652063726320307825FD
:101AF000303478202D2073686F756C642062652007
:101B00003078253034780A00436F72654D61726B0E
:101B10002053697A65202020203A20256C750A0020
:101B2000546F74616C207469636B732020202020D3
:101B3000203A20256C750A00546F74616C2074691A
:101B40006D65202873656373293A2025660A0000B5
:101B5000497465726174696F6E732F5365632020D9
:101B6000203A2025660A0000000000000000244002
:101B70004552524F5221204D75737420657865632C
:101B800075746520666F72206174206C6561737472
:101B9000203130207365637320666F722061207678
:101BA000616C696420726573756C74210A000000B1
:101BB000497465726174696F6E7320202020202043
:101BC000203A20256C750A00506C656173652070A1
:101BD000757420636F6D70696C65722076657273C1
:101BE000696F6E20686572652028652E672E2067F4
:101BF000636320342E312900436F6D70696C657208
:101C00002076657273696F6E203A2025730A000092
:101C10002D4F3300436F6D70696C657220666C6187
:101C200067732020203A2025730A00005354414353
:101C30004B0000004D656D6F7279206C6F636174AD
:101C4000696F6E20203A2025730A00007365656471
:101C5000637263202020202020202020203A203082
:101C600078253034780A00005B25645D6372636C0C
:101C7000697374202020202020203A2030782530DD
:101C800034780A005B25645D6372636D6174726908
:101C90007820202020203A203078253034780A001F
:101CA0005B25645D6372637374617465202020201A
:101CB00020203A203078253034780A005B25645D96
:101CC00063726366696E616C2020202020203A20B8
:101CD0003078253034780A004572726F7273206450
:101CE000657465637465640A00000000183900209B
:101CF00041EC100BAFF2E801AFF23410CDE9000176
:101D000053EC102B0CA001F06FF9AFF2E00111A021
:101D100001F06AF9AFF26C1008E6104801F064F9BE
:101D200007F1420000F0FFFB0DF6240D0020BDEC92
:101D3000068B02B0BDE8F08F436F72654D61726B28
:101D400020312E30203A202566202F202573202593
:101D500073000000202F202573000000B4380020FD
:101D600010B4002819BF00FB00F3002B10BC704713
:101D700010F0010004D0B1F800C09444A1F800C0F4
:101D800083429CBF10BC704731F810C0944421F8C6
:101D900010C001EB400C801CBCF80240834214448C
:101DA000ACF80240F0D810BC70472DE9F0010024D7
:101DB000A046A446002818BF002516D900E088B127
:101DC00005FB00F301EB8306074633681C4494428D
:101DD0000FDD0CF10A0C0FFA8CFC0024361D98461E
:101DE0007F1EF2D16D1C8542E9D3BDE8F00160464B
:101DF00070474345CCBF4FF001084FF00008C44482
:101E00000FFA8CFCEAE72DE9FF4F002818BF4FF0CE
:101E100000088EBF4FF0000E04B0BDE8F08F00BF89
:101E20004FF00005002824D9DDF808C008FB00F2B7
:101E30000CEB420A08FB005B724641F82BE0A8B1AC
:101E4000D44603EB450406463CF8027BB4F8009008
:101E500017FB09F7C7F38309C7F3461719FB0722D6
:101E600004EB4004761EEFD141F82B206D1C854217
:101E7000E0D308F10108804524BF04B0BDE8F08F2D
:101E80000028F6D0CCE72DE9FF4F002818BF002727
:101E90008EBF4FEA500804B0BDE8F08F4FF0000647
:101EA000002837D9029B07FB00F203EB420A07FB2D
:101EB0000069002241F8292048B3039BA6EB000CDF
:101EC000AAF1020403EB4C0C10F0010F07D00CEB4D
:101ED000400C34F8023FBCF8005013FB05220025EB
:101EE0005FEA080310D000BFB4F802B03CF810E07D
:101EF0001BFB0E220CEB800C34F804BFBCF800E096
:101F00001BFB0E555B1EEFD12A4441F82920761C9D
:101F10008642CCD37F1C874224BF04B0BDE8F08F3B
:101F20000028F7D0BAE72DE9F04F002818BF0027A6
:101F300086BF4FF0000B4FEA500ABDE8F08F00BF9C
:101F400041F827B038B307FB00F402EB4404DC4649
:101F5000A4F10205A3F1020610F0010F05D035F837
:101F6000024F36F8028F14FB08CC4FF000085FEAEE
:101F70000A040DD0B5F80290B6F802E019FB0ECCB9
:101F800035F8049F36F804EF19FB0E88641EF1D172
:101F9000C44441F827C07F1C8742D1D3BDE8F08FED
:101FA0002DE9F001002818BF00268EBF4708BDE8C4
:101FB000F001704706FB00FC02EB4C04A4F10205A3
:101FC00001EB8C0CACF1040410F0010F05D035F8D6
:101FD00002CF1CFB03FC44F804CFB7F1000C0ED079
:101FE000B5F8028018FB03F8C4F8048035F8048FB4
:101FF00018FB03F844F8088FBCF1010CF0D1761CF3
:10200000864224BFBDE8F00170470028D2D1F6E730
:102010002DE9FF4F91B000261E98139A40F47040AE
:1020200000B20C9011981E9900FB00F30B9300284E
:1020300018BF5FEA030C14D010F0010002D013881F
:102040000B44138084450CD932F810300B4422F82D
:10205000103002EB4003801C5C8884450C445C809B
:10206000F2D8DDE91109DDF84C801E9D002818BF6B
:10207000002488BF470826D904FB00F108EB410281
:1020800009EB8101A2F1020CA1F1040310F0010F90
:1020900005D03CF9021F01FB05F143F8041F3A008B
:1020A0000BD000BFBCF90210694359603CF9041F12
:1020B000694343F8081F521EF4D1641C844202D2C3
:1020C0000028D9D1F9E7DDE911010C9AFFF76DFE7F
:1020D000314600F06CFC0190DDE911C8DDE913BA6E
:1020E000BCF1000F18BF002484BF4FEA5C09002731
:1020F0002CD9384648F82470BCF1000F23D004FBDB
:102100000CF10BEB41018A1EAAF102031CF0010F36
:1021100005D032F8021F33F8025F11FB05000025DD
:102120005FEA09010CD05688B3F802E016FB0E00F6
:1021300032F8046F33F804EF16FB0E55491EF2D146
:10214000284448F82400641C6445D2D3DDE9110119
:102150000C9AFFF72AFE019900F029FC0190DDE9B5
:1021600011071399099114990D91002818BF0025A2
:1021700088BF4FEA50083FD94FF00006002835D9F4
:10218000099A05FB00F102EB410A05FB00690021F9
:1021900047F8291038B3331A0D9AAAF1020C02EB52
:1021A000430310F0010F06D003EB40033CF8022F6D
:1021B0001C8812FB041100245FEA080210D000BF43
:1021C000BCF802B033F810E01BFB0E1103EB8003E8
:1021D0003CF804BFB3F800E01BFB0E44521EEFD1E5
:1021E000214447F82910761C8642CED36D1C8542C7
:1021F00002D20028FAD0BFE7DDE911010C9AFFF7FF
:10220000D4FD019900F0D3FB0190DDE91108139989
:102210000A91DDF850B0002818BF002688BF4FF0A3
:1022200000092DD94FF00004002823D90A9A06FB93
:1022300000F102EB410A06FB004E494648F82E9099
:10224000A8B152460BEB44034FEA000532F802CB2B
:102250001F881CFB07FCCCF38307CCF3461C17FB41
:102260000C1103EB40036D1EF0D148F82E10641CD6
:102270008442E0D3761C864202D20028FAD0D1E70D
:10228000DDE911010C9AFFF790FD019900F08FFB39
:102290001E9A11995242139B0FFA82FC00291CBF0F
:1022A0000B9C002C15D011F0010102D01A88624459
:1022B0001A808C420DD900BF33F81120624423F8F4
:1022C000112003EB4102891C55888C4265445580DE
:1022D000F2D815B000B2BDE8F08F38B51546D0E998
:1022E0000123D0F800C0C468009121466046FFF782
:1022F0008FFE2946BDE8384000F059BB2DE9F04F6C
:1023000000244FF0010C002A08BF0122002805D943
:10231000641C04FB04F5ED00A842F9D8491E601EB8
:1023200021F0030101F1040B00FB00FE0BEB4E0A50
:10233000002818BF002128D900E018B301FB00F4E1
:102340000AEB44060BEB44054FF000044FEA00078C
:102350000CEB040909FB02F24FEAE27802EB1848A1
:102360006FF30F08A2EB080209EB020826F8028BB4
:10237000C84408F0FF0825F8028B04F101047F1E11
:10238000E6D18444491C8142D7D30AEB4E01C3E90C
:1023900001BA491E21F00301091DD9601860BDE88A
:1023A000F08F00000000000061480168491C0160D6
:1023B00070475F48002101605E484FF47A72006800
:1023C000B0FBF2F0421EB2F1807F28BF70474FF0A1
:1023D000E0204261584BF02283F8142D81610721DF
:1023E000016170474FF0E020016921F001010161B6
:1023F0000021816170474E480068704710B500F0B9
:1024000082FB9FED4F1B53EC112B00F00DFB41ECB9
:10241000100B10BD4C48016841F400710160704719
:102420004948016841F480610160704708B50120A6
:10243000FEF797F93120FEF799F90028FAD000202D
:10244000FEF7E9F90020FEF70FFA4FF4A050FEF76F
:1024500012FA4FF48050FEF715FA0820014600905A
:1024600002234FF4A872C004FEF7C6F90120FEF75C
:10247000D2F93920FEF77AF90028FAD00220FEF7C7
:10248000E7F900BFFEF7EBF90828FBD108BD38B526
:1024900004460120FEF765F93120FEF767F90028B0
:1024A000FAD00020FEF7B7F90020FEF7DDF94FF46F
:1024B000A050FEF7E0F94FF48050FEF7E3F9082052
:1024C0000146009002234FF4A872C004FEF794F96D
:1024D0000120FEF7A0F93920FEF748F90028FAD0CC
:1024E0000220FEF7B5F900BFFEF7B9F90828FBD1C5
:1024F0001548016841F4C06101604FF4A060FEF727
:10250000E5FBFDF781FEFDF791FFC020FEF714F813
:102510000020FDF7C6FFFEF73FFC0CA000F064FDB5
:102520000120207038BD00210170704700000000BC
:102530004C800020008000200FE000E00000000040
:102540000000000000408F40003C024054686520BD
:10255000436F72654D61726B2069732072756E698D
:102560006E672C506C6561736520576169742E200D
:102570002E2E200D0A0000000368844600201A78E1
:10258000002A00F0CA802C2A5BD0A2F13000092872
:1025900033D80A680420521C0A6013F8012F002A5D
:1025A00076D02C2A7BD05EE0A2F13000092870D8CA
:1025B0008A690720521C8A6113F8012F002A67D00C
:1025C0002C2A67D16BE02B2A18BF2D2A77D0CA6836
:1025D0004FF0010002F10102CA6060E0A2F1300098
:1025E00009282FD88A680420521C8A6013F8012F0A
:1025F000002A4DD02C2A52D035E02B2A18BF2D2A84
:102600000AD02E2A13D04A680120521C4A600A6858
:10261000521C5B1C0A6080E00A680220521C0A609F
:1026200013F8012F002A78D02C2A38D0D6E70A6870
:102630000520521C0A6013F8012F002A6DD02C2AA5
:102640002FD12CE02E2A04D08A680120521C8A60E7
:1026500025E08A680520521C8A6013F8012FBAB160
:102660002C2A1ED11BE02E2A08D0303A092A12D873
:1026700013F8012F62B12C2AF5D110E00A69052068
:10268000521C0A6113F8012F12B12C2A09D106E05D
:1026900042E02EE032E00A690120521C0A615B1C14
:1026A0003BE0452A18BF652A0AD0A2F13002092A68
:1026B00010D813F8012F7AB32C2AF2D1EFE70EE0ED
:1026C0004A690320521C4A6113F8012F22B32C2AB5
:1026D000E5D078E74A690120521C4A61DFE7CA6801
:1026E0000620521CCA6013F8012FAAB12C2AD6D09A
:1026F0005AE78A690120521C8A61D0E7303A092AD8
:1027000005D813F8012F3AB12C2AF7D1C7E74A6848
:102710000120521C4A60C2E7FFE7CCF80030704746
:102720002DE9F04F95B080460020DDE91E6A0A9041
:102730000B900C900F9010900D900E9011900090B7
:1027400001900D4602900390049005900690CDE90B
:1027500007052878994693466F4660B10AA908A8EC
:10276000FFF70AFF57F82010491C47F82010089877
:1027700000780028F2D105EB0800401B3044A0F19E
:10278000010898FBF6F02C4608950028C8BF0BF00E
:10279000FF0207DD21782C291CBF514021703444F1
:1027A000401EF7D10895287860B10AA908A8FFF75C
:1027B000E3FE57F82010491C47F8201008980078CD
:1027C0000028F2D198FBF6F008950028C8BF09F060
:1027D000FF0207DD29782C291CBF514029703544A0
:1027E000401EF7D100240AAD57F82400514600F0EE
:1027F00004F955F824200146104600F0FEF8641C48
:102800008246082CF0D315B0BDE8F08F2DE9F84FC3
:102810004FF0000CA0F10108654666466746B8F126
:10282000010F4DD9DFF8E8A00AF1100B0AF1200ED4
:102830001DE0E5B102EB0C00731E0090401E15F088
:10284000010F03D013F801CF00F801CF5FEA550C58
:1028500008D05C78447013F8024F00F8024FBCF1C6
:10286000010CF6D1009B2C2009F1010C5855481C95
:1028700001B201F0070008281CD2DFE800F00404D0
:10288000040A0A0F0F15C1F3C10004255AF820608D
:1028900010E0C1F3C1005BF8206003E0C1F3C100A8
:1028A0005EF82060082505E01A48C1F3C103082539
:1028B00050F823600CEB050909F101004045B8D33D
:1028C00008F10100844538BFB0F1004F14D202EB8B
:1028D0000C01A0EB0C00491E10F0010F18BF01F80D
:1028E000017F400808BFBDE8F88F4F7001F8027FF4
:1028F000401EFAD1BDE8F88F604598BFBDE8F88F5B
:1029000002F80C700CF1010C8445F9D3BDE8F88F86
:102910005080002080800020062810D2DFE800F0E0
:102920000F0306080B0D3B48006870473A4800E06B
:102930003A48006870473A48FBE73A48F9E7002010
:10294000704708224AF2010C80EA010313F0010FDC
:102950004FEA500014BF8CEA51014908521EF3D1CE
:10296000084670470346C0B25FF0080280EA010CD7
:102970001CF0010F4FEA50001ABF4AF2010C8CEA1A
:1029800051014908521EF1D108461A0A08214AF29B
:10299000010C00BF82EA000313F0010F4FEA52025C
:1029A00014BF8CEA50004008491EF3D170471FFA4B
:1029B00080FC0CF0FF00082280EA010313F0010FF5
:1029C0004FEA50001ABF4AF2010383EA5101490855
:1029D000521EF1D108464FEA1C2208214AF2010C8E
:1029E00082EA000313F0010F4FEA520214BF8CEA8F
:1029F00050004008491EF3D1704710B5044600B29C
:102A0000FFF7D5FF22140146BDE810401046CEE77F
:102A10000020704734800020388000203C80002057
:102A200040800020448000202DE9F04D81EA03041D
:102A300004F0004B21F0004514464FF0000A23F04B
:102A4000004150EA050220D054EA01021DD0C5F32E
:102A50000A570246C5F31303C1F31300C1F30A5624
:102A600040F4801543F48013A7EB0608101BD646EC
:102A700008F2FD3873EB050002D308F1010801E00C
:102A800092185B41B8F1000F03DA00200146BDE85F
:102A9000F08D00204FF48011064684460EE0171B8F
:102AA00073EB050705D3121B63EB050306434CEAE2
:102AB000010C49084FEA300092185B4150EA0107C7
:102AC000EDD152EA030012D082EA040083EA050144
:102AD000084305D0101BAB4106D20122002306E0BB
:102AE00000224FF0004302E06FF0010253101AEB96
:102AF00006004CEB085110EB0A0041EB0B01BDE85E
:102B0000F04D00F0AEB80EB540F233410291002115
:102B1000CDE900110A460B4600F0B2F803B000BD43
:102B2000C1F30A5210B5C1F3130140F2FF3341F46F
:102B300080119A4201DA002010BD40F233439A42DC
:102B4000A2F2334203DC524200F07BF810BD904009
:102B500010BD000030B5041E71F1000404DB4FF01D
:102B60000044404264EB0101141E73F1000405DBD4
:102B70001C464FF00043524263EB04038B4208BFF4
:102B8000824230BD30B5041E71F1000404DB4FF009
:102B90000044404264EB0101141E73F1000405DBA4
:102BA0001C464FF00043524263EB0403994208BFB6
:102BB000904230BD30B50B46014600202022012452
:102BC00009E021FA02F59D4205D303FA02F5491BFB
:102BD00004FA02F52844151EA2F10102F1DC30BD11
:102BE0002DE9F05F0546002092469B468846064642
:102BF000814640241BE0284641464746224600F0D5
:102C000020F853465A46C01A914110D3114618462F
:102C1000224600F0C7F92D1A67EB01084F462246FD
:102C20000120002100F0BEF917EB00094E41201EE3
:102C3000A4F10104DFDC484631462A464346BDE89C
:102C4000F09F202A04DB203A21FA02F0002170478D
:102C500021FA02F3D040C2F1200291400843194604
:102C6000704710B5141E73F1000408DA401C41F1DE
:102C7000000192185B411A4301D120F0010010BD00
:102C80002DE9F04D92469B4611B1B1FA81F202E076
:102C9000B0FA80F22032904600F084F904460F46E4
:102CA00040EA0A0041EA0B0153465A46084313D052
:102CB000114653EA010019D0C8F140025046FFF70F
:102CC000C0FF05460E4650465946424600F06AF996
:102CD000084305D0012004E020463946BDE8F08DC8
:102CE0000020054346EAE0762C4337430A98630503
:102CF000E40AA0EB08000022FD0A44EA47540A3027
:102D000002D500200146E9E7010510196941DDE916
:102D1000084500196941BDE8F04DA2E72DE9FE4FD5
:102D2000804681EA0300C00F0C46009021F000416C
:102D300023F00045B8EB0200A94105D240462146E8
:102D400090461C460B46024623F00040104347D0F5
:102D5000270DC7F30A00C3F30A510290401A0190ED
:102D600040286BDAC3F3130040F4801B00989246AE
:102D700020B10023D2EB030A63EB0B0B01985946F9
:102D8000C0F14002504600F00DF906460D4650468F
:102D90005946019A00F015F910EB08006141002432
:102DA00087EA115284EAE7731A4340D0009A62B36B
:102DB000019A012A4FEA075215DC001B61EB020160
:102DC0004FF0004202EA0752CDE90042001C41F5F3
:102DD000801132462B46FFF753FF03B0BDE8F08F5A
:102DE00040462146F9E7001B61EB0201001C41F55A
:102DF000801300185B412018A2F5001747EB030170
:102E000040EAD570B6196D4111E06D084FEA3606FB
:102E100045EAC0754FEA0752001B61EB0201001C36
:102E200041F5801149084FEA3000001951413246FE
:102E30002B4603B0BDE8F04FFFF713BF0098012207
:102E400040000023D0EB020263EBE07300982146C0
:102E50004FEAE074B8EB000061EB0401E9E783F0AE
:102E600000435BE781F0004158E72DE9FE4F81EA1E
:102E7000030404F0004421F0004100944FF0000BE3
:102E800023F0004350EA01045ED052EA03045BD011
:102E9000C3F30A54C1F30A552C44A4F2F334019449
:102EA000A0FB0254C1F3130141F48011C3F31303D7
:102EB00043F4801301FB024400FB034E840A970A8B
:102EC00044EA815447EA8357A4FB076802958D0AB8
:102ED00005FB07854FEA932C04FB0C542705029D44
:102EE0004FEA065847EA1637B5EB08056EEB070CB4
:102EF000870E920E47EA811742EA8312A7FB02016E
:102F0000B6EB0B0164EB00042B0D43EA0C335E18A7
:102F100044EB1C50DA465146E7FB0201C5F31304AB
:102F20004FEA0B3343EA14534FEA0432019C43EA5D
:102F30000603A4F10C040294009CCDE900B4FFF751
:102F40009FFE03B0BDE8F08F00200146F9E7C1F312
:102F50000A52C1F3130140F2FF3341F480119A4247
:102F600002DA00200146704740F233439A42A2F24F
:102F7000334202DC5242FFF764BE00F013B8000097
:102F8000064C074D06E0E06840F0010394E80700B6
:102F900098471034AC42F6D3FDF7FAF8143A002003
:102FA000343A0020202A04DB203A00FA02F1002003
:102FB00070479140C2F1200320FA03F31943904077
:102FC0007047202A06DBCB17203A41FA02F043EA89
:102FD000E07306E041FA02F3D040C2F120029140D2
:102FE00008431946704700000FB4054B10B503A9FC
:102FF000044A029800F0DAF810BC5DF814FB0000F7
:10300000790E00209080002002E008C8121F08C13D
:10301000002AFAD170477047002001E001C1121F59
:10302000002AFBD1704700002DE9FF5F82B000212C
:10303000DDE90430020DDDF840B0034318D044F65A
:103040001050A2F2FF3242431514119801281FD0EC
:10305000A5EB0B00401C5FEA000A4FF000064E4F44
:10306000DFF83891B046504615D5CAF1000413E098
:10307000119801244AA3012801D16FEA0B0102989B
:10308000119AC0E90031C0E9024206B0BDE8F09FE4
:10309000CBF10000DFE704460021404A491842EB2B
:1030A0000450CDE9001012E0E00707D032463B465D
:1030B00040464946FFF7D9FE8046894632463B46A0
:1030C00010461946FFF7D1FE06460F466410002C45
:1030D000EAD1DDE90401DDE90023BAF1000F06DAE7
:1030E000FFF7C3FE42464B46FFF7BFFE05E0FFF782
:1030F0009BFC42464B46FFF797FC04460E460022D7
:10310000284BFFF73FFD03D84FF0FF30014607E0A3
:103110000022254B20463146FFF700FEFFF717FF40
:10312000102409E0002C0ADB0A220023FFF758FDD7
:10313000039B30321A55641E50EA0102F2D1641C1E
:10314000039AC4F111031444119A012A03D00122F5
:1031500008430DD10AE0084304D000204FF0110BC2
:10316000119072E7A3EB0B056D1E0DE05B4504DDCE
:103170004FF0000205F1010504E003DA4FF0000210
:10318000A5F10105002AECD002981199C0E902319D
:10319000C0E9004579E70000000014400000F03F5E
:1031A000300000000000F0430000E03F2DE9FF4F39
:1031B00095B09A46884606460025EEE1252877D147
:1031C00000242746F94A0121039400E0044316F83D
:1031D000013F203B01FA03F01042F7D130782A2852
:1031E00011D06FF02F033078A0F13002092A16D8E1
:1031F000039A44F0020402EB820203EB4202104401
:10320000761C0390EFE758F8042B0392002A03DAA8
:10321000504244F40054039044F00204761C307889
:103220002E2816D116F8010F44F004042A280DD0D8
:103230006FF02F023078A0F13003092B09D807EB8B
:10324000870302EB4303C718761CF3E758F8047BA7
:10325000761C30786C280FD006DC4C2817D06828F4
:103260000DD06A2814D104E0742810D07A280FD128
:103270000DE044F400140AE044F4801401E044F446
:1032800040147278824202D104F58014761C761CB8
:10329000307866280BD013DC582877D009DC00285A
:1032A00075D04528F6D04628F4D047281AD193E1A6
:1032B00018E0632835D0642879D0652812D18BE1D5
:1032C000702873D008DC6728F1D069286FD06E2889
:1032D0000DD06F2806D1ACE073282CD0752874D09F
:1032E000782853D05246179990476D1C54E1C4F387
:1032F0000250022809D003280DD0D8F80010042865
:103300000DD00D6008F1040846E1D8F80010EA1766
:10331000C1E90052F6E7D8F800100D80F2E70D7011
:10332000F0E718F8041B8DF8001000208DF801005C
:10333000EB46012003E058F804BB4FF0FF30610773
:103340004FF0000102D40DE009F101018946B942B4
:103350000FDA8145F8DB1BF809100029F4D108E0E9
:1033600009F1010189468142FADB1BF809100029A5
:10337000F6D103985346A0EB090721463846179A21
:1033800000F080FA284400EB090507E044E008E17A
:103390000DE01BF8010B524617999047B9F101094E
:1033A000F7D2534621463846179AF2E039E00A210F
:1033B000C4F302524FF0000B0091022A06D058F8D5
:1033C000040BC117032A09D00AE023E008F1070023
:1033D00020F00702F2E80201904605E000B2C117B2
:1033E000042A01D140B2C117002906DA0A46002199
:1033F000404261EB02012D2202E0220504D52B227E
:103400008DF80420012203E0E20701D02022F7E733
:10341000914657E00A2100E010214FF0000B009187
:103420000BE010214FF0000B44F00404082700913A
:1034300003E008204FF0000B0090C4F30252022A70
:1034400005D058F8040B0021032A08D008E008F141
:10345000070020F00702F2E80201904603E080B284
:10346000042A00D1C0B24FF0000922072AD53278D1
:10347000702A07D0DDF800C08CF0100C5CEA0B0C51
:1034800005D00EE040228DF80420012208E050EA29
:10349000010306D030238DF804308DF80520022278
:1034A0009146009B83F0080353EA0B030AD150EACC
:1034B000010201D1620705D530228DF804204FF0BA
:1034C00001097F1E3278582A04D039A20C920CAA26
:1034D00002920BE03BA2F9E75B46009AFFF780FB04
:1034E0000C9B9B5C029A521E0292137050EA0102DE
:1034F000F2D1029804A9081A00F1200B600702D546
:1035000024F4803400E001275F4502DDA7EB0B00C7
:1035100000E0002000EB0B01009003984944401AA2
:103520000390E00306D453462146179A039800F00F
:10353000A9F90544002706E001A85246C05D179985
:1035400090476D1C7F1C4F45F6DBE0030CD55346BE
:103550002146179A039800F095F9054404E03020BD
:103560005246179990476D1C0099481E00900029FB
:10357000F5DC08E00298029952460078491C029155
:10358000179990476D1CBBF10001ABF1010BF1DC09
:103590005BE100F065F90544761C307800287FF483
:1035A0000DAE19B02846BDE8F08F000009280100D3
:1035B00030313233343536373839616263646566A9
:1035C000000000003031323334353637383941426B
:1035D0004344454600000000600700D4062708F178
:1035E000070020F00700F0E80223804603F0004CBB
:1035F0005FEA0C0001D097A009E0200501D596A054
:1036000005E0E00701D095A001E0AFF24C00139077
:10361000307823F0004365280CD006DC452809D01B
:1036200046281DD047287FD13BE0662818D0672860
:103630007AD136E00021112F01DB112000E0781C47
:10364000CDE9000104A90CA8FFF7EEFCDDE90D01AE
:103650000C9A4FF0000B07F10109109200914EE017
:103660004FF000400097CDE9011004A90CA8FFF726
:10367000DBFCDDE90D020C9B0F994FF0000B91462E
:103680001093009211B9791C00EB0109B7EB090006
:1036900003D4C0F1FF3B07F10109A9EB070001903A
:1036A00042E0012F00DA01270021112F01DD112056
:1036B00000E03846CDE9000104A90CA8FFF7B4FCEE
:1036C000DDE90D010C9A00914FF0000BB946109204
:1036D00021070FD4009A4A4503DA914601E0A9F187
:1036E0000109B9F1010F05DD109AA9F10101515C41
:1036F0003029F4D0B84202DA10F1040F03DA0121C4
:10370000CDE9011010E0002803DC8344A9EB00019F
:1037100002E0411C494500DD8946A0EB0B00401C3E
:1037200001904FF000400290200705D401984845D1
:1037300002DB4FF0FF30019000208DF84B00029823
:103740000DF14B07B0F1004F25D002200C902B203B
:103750000D90029800280CDA404202902D200D9026
:1037600007E00A210298FFF725FA3031029007F8A6
:10377000011D0C99481E0C900029F2DC02980028CB
:10378000EFD1791E0D980870307800F0200040F0DD
:10379000450007F8020D11A8C01BC01D0290139828
:1037A000007800B1012000EB0901019801EBE07104
:1037B000029801440398401A401E0390E00306D487
:1037C00053462146179A039800F05CF80544139875
:1037D000007818B15246179990476D1CE00323D525
:1037E00053462146179A039800F04CF805441BE015
:1037F000BBF1000F07DB0098584504DD10981799BE
:1038000010F80B0001E017993020524690470198BC
:103810000BF1010B401E05F10105019004D12E2092
:103820005246179990476D1CB9F10001A9F10109A1
:10383000DEDC05E017F8010B5246179990476D1C26
:103840000299481E02900029F4DC53462146179A3B
:1038500003989EE62D0000002B00000020000000D1
:103860002DE9F041044600251E461746880404D47D
:1038700005E039462020B0476D1C641EF9D5284666
:10388000BDE8F0812DE9F041044600251E46904632
:10389000C80301D5302700E02027880404D505E0BF
:1038A00041463846B0476D1C641EF9D52846BDE830
:1038B000F081000043616E6E6F742076616C696404
:1038C000617465206F7065726174696F6E20666FD8
:1038D0007220746865736520736565642076616C19
:1038E0007565732C20706C6561736520636F6D70F6
:1038F000617265207769746820726573756C747382
:10390000206F6E2061206B6E6F776E20706C61741B
:10391000666F726D2E0A0000436F727265637420C9
:103920006F7065726174696F6E2076616C69646135
:103930007465642E2053656520524541444D452EE3
:103940006D6420666F722072756E20616E642072E5
:1039500065706F7274696E672072756C65732E0A7C
:103960000000000033352E353434303000000000C4
:103970002B302E3634343030000000002E313233FC
:1039800034353030000000002D3131302E373030EA
:10399000000000002D2E313233652D320000000072
:1039A0002B302E36652D313200000000353031329B
:1039B000000000002B313232000000002D38376546
:1039C0002B38333200000000352E353030652B3374
:1039D0000000000031323334000000002D3837344D
:1039E0000000000054302E33652D314600000000E9
:1039F00033342E30652D545E000000002D542E54BB
:103A00002B2B5471000000003154332E3465347A6E
:103A100000000000343A00200080002094000000E4
:103A200008300020C83A00209480002004400000A4
:103A300018300020007A030A00000000010203048D
:103A40000102030406070809B0D44033796A14E779
:103A5000C1E352BE99110856D71F4707475EBF39C9
:103A6000A4E53A8E848D00000000000000000000F4
:103A700066000000E02E00000000000001000000D1
:103A800000000000AC390020D4390020DC390020CF
:103A9000B4390020643900207C39002088390020A6
:103AA00070390020C839002094390020BC3900202A
:103AB000A0390020E4390020FC390020083A002019
:083AC000F039002000000000B5
:04000005200001894D
:00000001FF
