:020000040800F2
:1000000048B90020610200081B040008130400081E
:10001000170400082103000825070008000000005D
:10002000000000000000000000000000A101000826
:100030002503000800000000FD010008B1060008CB
:100040007B0200087B0200087B0200087B0200089C
:100050007B0200087B0200087B0200087B0200088C
:100060007B0200087B0200087B0200087B0200087C
:100070007B0200087B0200087B0200087B0200086C
:100080007B0200087B0200087B0200087B0200085C
:100090007B0200087B0200087B0200087B0200084C
:1000A0007B0200087B0200087B0200087B0200083C
:1000B0007B0200087B0200087B0200087B0200082C
:1000C0007B0200087B0200087B0200087B0200081C
:1000D0007B0200087B0200087B0200087B0200080C
:1000E0007B0200087B0200087B0200087B020008FC
:1000F0007B0200087B0200087B0200087B020008EC
:100100007B0200087B0200087B0200087B020008DB
:100110007B0200087B0200087B0200087B020008CB
:100120007B0200087B0200087B0200087B020008BB
:100130007B0200087B0200087B0200087B020008AB
:100140007B0200087B0200087B0200087B0200089B
:100150007B0200087B0200087B0200087B0200088B
:100160007B0200087B0200087B0200087B0200087B
:100170007B0200087B0200087B0200087B0200086B
:100180007B0200087B020008DFF810D000F08CF83A
:1001900000480047D5080008AFF3008048B90020A8
:1001A0002C4B19680868B0E8F04F80F30988BFF35A
:1001B0006F8F4FF0000080F311887047000000003F
:1001C00008480068006880F308884FF0000080F35A
:1001D000148862B661B6BFF34F8FBFF36F8F00DF35
:1001E00000BF00BF08ED00E0DFF80C00016841F43B
:1001F00070010160704700BF88ED00E0EFF30980F7
:10020000BFF36F8F134B1A681EF0100F08BF20ED5D
:10021000108A20E9F04F106009B44FF0100080F30D
:100220001188BFF34F8FBFF36F8F01F0DFF84FF0EE
:10023000000080F3118809BC19680868B0E8F04F25
:100240001EF0100F08BFB0EC108A80F30988BFF3CE
:100250006F8F704718000020EFF305807047000093
:100260000648804706480047FEE7FEE7FEE7FEE750
:10027000FEE7FEE7FEE7FEE7FEE7FEE7E50600082D
:1002800089010008D2B201E000F8012B491EFBD21F
:1002900070470022F6E710B513460A460446194691
:1002A000FFF7F0FF204610BD064C074D06E0E06862
:1002B00040F0010394E8070098471034AC42F6D3AD
:1002C000FFF766FF88190008A81900081CB50A483E
:1002D000022100230A02CDE9001008A10A4801F01A
:1002E00083F90A4804210023CA01CDE9001008A1BE
:1002F0000A4801F079F91CBD1000002076546173A2
:100300006B4C45440000000051130008140000200D
:10031000765461736B537461727400005F1300084C
:1003200000BFFEE77047F0B50A4600210023002415
:1003300000BF3DE0012505FA01F3156805EA030455
:100340009C4234D105684F000326BE40B54305608A
:1003500015794E00B5400668354305601579012DC5
:1003600002D01579022D16D185684F000326BE40B4
:10037000B543856055794E00B54086683543856044
:10038000456801268E40B5434560456896798E40A4
:10039000B6B235434560C5684F000326BE40B5433D
:1003A000C560D5794E00B540C6683543C560491C67
:1003B0001029BFD3F0BDF0B5002300244D07ED0E8A
:1003C00002FA05F3CE1000F1200555F826504E072D
:1003D000F70E0F26BE40B543CF1000F1200646F8B9
:1003E0002750CE1000F1200555F8265045EA0304A9
:1003F000CE1000F1200545F82640F0BD418370473E
:100400004FF6FF7101600021017141718171C1716D
:10041000704700BFFEE700BFFEE770470249014397
:10042000024A1160704700000000FA050CED00E080
:1004300029B1064A12680243044B1A6004E0034AD9
:1004400012688243014B1A60704700002438024052
:1004500029B1064A12680243044B1A6004E0034AB9
:1004600012688243014B1A60704700003438024022
:10047000F0B5002100220024022500260223324F7D
:100480003F6807F00C0121B1042905D0082937D1B4
:1004900005E02E4F076036E02D4F076033E02A4F0E
:1004A0003F1F3F68C7F38056274F3F1F3F6807F045
:1004B0003F036EB1264FB7FBF3F7DFF88CC0ACF10A
:1004C000040CDCF800C0CCF3881C07FB0CF40CE037
:1004D0001E4FB7FBF3F7DFF870C0ACF1040CDCF88B
:1004E00000C0CCF3881C07FB0CF4174F3F1F3F687C
:1004F000C7F301477F1C7D00B4FBF5F7076002E0FE
:10050000124F076000BF00BF0F4F3F6807F0F001B8
:100510000909104F7A5C0768D74047600A4F3F6867
:1005200007F4E051890A0B4F7A5C4768D74087602F
:10053000054F3F6807F46041490B064F7A5C4768F6
:10054000D740C760F0BD0000083802400024F40026
:1005500000127A000000002010B50146002200239E
:1005600000204A11012A02D10A4C236808E0022A1D
:1005700003D1084C4C34236802E0064C5034236805
:1005800001F01F02012494401C400CB1012000E046
:10059000002010BD003802400248006800F00C0046
:1005A000704700000838024001460020034A1068E6
:1005B00020F0F00008431060704700000838024047
:1005C0000021024A1170114608707047023802403B
:1005D00001460020034A106820F4E05008431060F0
:1005E000704700000838024001460020034A1068A6
:1005F00020F4604040EAC1001060704708380240B3
:1006000001490866704700000000474270B5049C2D
:1006100041EA82150126C6EB530645EA0645054325
:1006200045EA0465014E356070BD000004380240A3
:1006300001460020034A106820F0030008431060C0
:10064000704700000838024008B50120FFF7B8FFE6
:1006500000BF3120FFF780FF0028FAD00020FFF70D
:10066000CFFF0020FFF7A0FF4FF4A050FFF7B0FF2F
:100670004FF48050FFF7B8FF082002234FF4A87210
:1006800001460090C004FFF7C1FF0120FFF7B8FF4B
:1006900000BF3920FFF760FF0028FAD00220FFF7E3
:1006A000C7FF00BFFFF778FF0828FBD108BD000097
:1006B00010B500BF102080F31188BFF34F8FBFF338
:1006C0006F8F00BF00F0ACFF18B14FF080500449AD
:1006D000086000BF002080F3118800BF10BD00003B
:1006E00004ED00E07047026A8A43026270471AB163
:1006F00003680B43036002E003688B4303607047A9
:100700000A885202CB8842EAC3120B8942EA83125A
:100710004B891A438B891A4302604A88C2608A88CF
:100720000261704700BFFEE702E008C8121F08C15F
:10073000002AFAD170477047002001E001C1121F62
:10074000002AFBD1704710B54FF44070FFF766FEEA
:1007500000F026F800F002F810BD00001CB50121E1
:100760000420FFF765FE6846FFF74AFE01208DF87A
:10077000040000208DF806008DF8070003208DF896
:1007800005004FF48040009069460448FFF7CBFD18
:100790004FF480410148FFF731FE1CBD00080240C4
:1007A0002DE9F0478AB000274FF4E138002600BF5A
:1007B0000025A946AA4601210846FFF739FE012176
:1007C0001020FFF745FE062202213B48FFF7F3FD0C
:1007D000062203213848FFF7EEFD00208DF82600A1
:1007E00001208DF8270002208DF8240004200890B5
:1007F00003208DF8250008A92F48FFF794FD02205B
:100800008DF824000820089008A92B48FFF78BFDDD
:100810006846FFF72DFE039F46B107EBC70000EBCC
:1008200007104FEA4801B0FBF1F407E007EBC700FF
:1008300000EB07104FEA8801B0FBF1F46420B4FB31
:10084000F0F01FFA80F9642000FB194546B1322010
:1008500000EBC5006421B0FBF1F000F0070A07E0EF
:10086000322000EB05106421B0FBF1F000F00F0A1C
:100870000EB1012000E00020ADF81000ADF812909C
:10088000ADF814A00020ADF81600ADF81800ADF8D2
:100890001C00ADF81A0004A90848FFF731FF012237
:1008A00011460648FFF723FF02210448FFF71BFF0C
:1008B0000AB0BDE8F08700000000024000100140CF
:1008C0000348006880F480400149086070470000D8
:1008D00014080240FFF7B8FE012080F3108800BF23
:1008E000FFF731FFFFF7F2FC00F040FD00BFFEE72D
:1008F0002DE9F04705460E46294807682948D0F8F3
:1009000000802948D0F8009028480068001D00F0B9
:10091000FFFB50B92548006890F82C100120884052
:1009200023490968814322480160681CE0B9DEB1AF
:1009300000BF204948681D49096888601B498268D2
:100940000968CA6019490968091D82685160174918
:100950000968091D8160174A144909684A611146EE
:100960000968491C116018E07C191048006844604F
:10097000BC4206D20D480168091D484600F0ECFB58
:100980000BE00A480168091D404600F0E5FB0A48F3
:100990000068844201D208480460BDE8F087000086
:1009A0002C0000201C000020200000201800002047
:1009B00030000020340100204800002010B504461B
:1009C00000F0E4FB34480068401C334908603348B9
:1009D000006840B9314804600846006801280DD11C
:1009E00000F0C6F90AE02E48006838B92B480068C4
:1009F000C06AE16A884201D8284804602948006832
:100A0000401C2849086008460068606400BF94F8EC
:100A10002C100120884024490968084322490860B5
:100A200000BFE16A01EB8101204A02EB81014868C5
:100A3000A0608268E260211D826851608160E16A85
:100A400001EB8101194A02EB81026261E16A01EB6B
:100A50008101164A52F82110491CE26A02EB820217
:100A6000124B43F8221000BF00BF00F0B9FB0C4846
:100A7000006878B100BF09480068C06AE16A88422E
:100A800007D24FF080500A490860BFF34F8FBFF381
:100A90006F8F00BF10BD000028000020180000204C
:100AA000340000204400002030000020800000209E
:100AB00004ED00E010B516E000F068FB0C48C068DB
:100AC000C468201D00F024FB0A480068401E094944
:100AD000086009480068401E0749086000F080FB74
:100AE000204600F074F8044800680028E4D110BDE6
:100AF000200100202800002024000020F0B587B04D
:100B00000126002003900490059006900027002401
:100B100008E014A0005D03A9085503A8005D00B912
:100B200002E0641C0F2CF4D300BF002003A9085579
:100B3000002511E00D4F0E4800EB850000210B460B
:100B40008022CDE9001003A9384600F04DFD06468D
:100B5000012E00D002E06D1C012DEBDB00BF304602
:100B600007B0F0BD49444C45000000004D0C0008A2
:100B70004C0000202DE9FF5F07468846164699463F
:100B8000DDE90EABB00000F0AFF9054675B15420B9
:100B900000F0AAF904462CB154212046FFF779FB56
:100BA000256304E0284600F039FB00E0002454B13E
:100BB00000204B4632464146CDE900ABCDE902402C
:100BC000384600F057F8204604B0BDE8F09F10B555
:100BD0000446206B00F022FB204600F01FFB10BDF6
:100BE00030B54FF4F043144800F007042CB1C01D99
:100BF00020F00700104C041B1B1B104C206000242D
:100C00000E4D6C60C218083A22F007020C4C2260AC
:100C100000240B4D2D686C60094D2D682C60014639
:100C2000541A4C60064C24680C60064D4C682C60CD
:100C3000054D4C682C6030BD480100205800002054
:100C400060000020680000206400002000BFFFF763
:100C500031FF064800680128F9D94FF08050044957
:100C60000860BFF34F8FBFF36F8FF0E78000002065
:100C700004ED00E02DE9F05F82460E4617469B46E4
:100C8000DDF828800C9CB900A522206BFFF7FAFA4A
:100C9000781E216B01EB800929F0070909F0070094
:100CA00008B9012000E0002050B900BF102080F3F7
:100CB0001188BFF34F8FBFF36F8F00BF00BFFEE7F8
:100CC0007EB1002507E0715D04F134004155705D8F
:100CD00000B902E06D1C102DF5D300BF00214320A8
:100CE0000155B8F1050F01D2012000E0002050B9F4
:100CF00000BF102080F31188BFF34F8FBFF36F8FB9
:100D000000BF00BFFEE7B8F1050F01D34FF00408A4
:100D1000C4F82C80201D00F01CFA04F1180000F02B
:100D200018FA2461C8F10500A06164625A46514670
:100D3000484600F0D7F920602068A9EB0000B7EB27
:100D4000A00F01D9012000E0002050B900BF102001
:100D500080F31188BFF34F8FBFF36F8F00BF00BFC9
:100D6000FEE70B9808B10B980460BDE8F09F000007
:100D700010B5002407E004EB84010F4A02EB810068
:100D800000F0DAF9641C052CF5D30C4800F0D4F916
:100D90000B4800F0D1F90B4800F0CEF90A4800F0FA
:100DA000CBF90A4800F0C8F904480949086004482A
:100DB0000849086010BD000080000020E400002009
:100DC000F80000200C010020200100203401002048
:100DD0001C0000202000002010B50146224800E041
:100DE000006803688B42FBD31F4B984214D01F4B03
:100DF000984204D31E4B984201D8012300E00023FF
:100E000053B900BF102383F31188BFF34F8FBFF393
:100E10006F8F00BF00BFFEE70246436813448B425A
:100E200004D143684C682344436001460A464B683A
:100E300013440468A34211D10E4C03682468A342F2
:100E400008D04B680468646823444B6003681B68DF
:100E50000B6005E0074B1B680B6001E003680B604B
:100E6000884200D0016010BD5800002048010020D9
:100E7000477900206000002009480068006808B930
:100E8000012000E0002020B14FF0FF30054908604C
:100E900005E003480068C0680068024908607047C0
:100EA0001C000020480000200E480068401C08B9C3
:100EB000012000E0002050B900BF102080F311880D
:100EC000BFF34F8FBFF36F8F00BF00BFFEE700BFC0
:100ED000102080F31188BFF34F8FBFF36F8F00BFD7
:100EE00000BFFEE7740000202DE9F04705464FF0F3
:100EF0000008C246DDB115F1090F01D9012000E05B
:100F0000002098B9083505F0070080B105F007000A
:100F1000C0F10809C9F1FF30A84201D2012000E068
:100F2000002008B94D4402E0002500E0002500F053
:100F300055FA6548006808B9FFF752FE012000EB3A
:100F4000E570002877D0002DFCD06048006885420D
:100F500071D85F4E304604685E48844204D35E48D0
:100F6000844201D8012000E0002050B900BF1020C9
:100F700080F31188BFF34F8FBFF36F8F00BF00BFA7
:100F8000FEE716E0264624685248844204D35248BD
:100F9000844201D8012000E0002050B900BF102099
:100FA00080F31188BFF34F8FBFF36F8F00BF00BF77
:100FB000FEE76068A84202D220680028E2D14248D9
:100FC0000068844269D0306800F1080841488045D3
:100FD00004D34148804501D8012000E0002050B9E9
:100FE00000BF102080F31188BFF34F8FBFF36F8FC6
:100FF00000BF00BFFEE7206830606068A84201D2F1
:10100000012000E0002080F0010050B900BF102056
:1010100080F31188BFF34F8FBFF36F8F00BF00BF06
:10102000FEE76068401B10281AD9671907F007000F
:1010300010B9012001E030E0002050B900BF1020BD
:1010400080F31188BFF34F8FBFF36F8F00BF00BFD6
:10105000FEE76068401B7860656030683860376024
:101060001A4960680968081A184908600846006843
:101070001A490968884203D2144800681749086071
:10108000D4F804A0606840F0004060600020206058
:1010900013480068401C1249086000F0A7FB08F0E4
:1010A000070008B9012000E0002050B900BF10205F
:1010B00080F31188BFF34F8FBFF36F8F00BF00BF66
:1010C000FEE74046BDE8F087600000206400002095
:1010D00058000020480100204779002068000020C7
:1010E0006C000020001F4FF080730360001F21F090
:1010F00001030360001F054B036014380260001FEA
:101100006FF002030360203870470000A90E00084A
:1011100001460A69D1E901309860D1E901035860BC
:101120005068884201D188685060002008611068CA
:10113000401E10601068704700F1080141604FF0D8
:10114000FF31816000F10801C1600161002101608F
:10115000704700210161704710B502460B685C1CA6
:101160000CB9106907E002F1080000E0406844682B
:1011700024689C42FAD944684C604C68A16088603D
:1011800041600A611468641C146010BD00BF102027
:1011900080F31188BFF34F8FBFF36F8F00BF0E48EE
:1011A0000068401C0C49086008460068012812D1FC
:1011B0000A480068C0B208B9012000E0002050B918
:1011C00000BF102080F31188BFF34F8FBFF36F8FE4
:1011D00000BF00BFFEE770477400002004ED00E090
:1011E0000D48006850B900BF102080F31188BFF38C
:1011F0004F8FBFF36F8F00BF00BFFEE70648006848
:10120000401E054908600846006820B9002080F3A8
:10121000118800BF00BF70477400002070B50646FB
:101220003546002E50D0083D2C462848844204D331
:101230002748844201D8012000E0002050B900BFB7
:10124000102080F31188BFF34F8FBFF36F8F00BF63
:1012500000BFFEE76068C00F50B900BF102080F3E8
:101260001188BFF34F8FBFF36F8F00BF00BFFEE742
:10127000206808B9012000E0002050B900BF10200C
:1012800080F31188BFF34F8FBFF36F8F00BF00BF94
:10129000FEE76068C00FB8B12068A8B9606820F0A8
:1012A0000040606000F09AF80A49606809680844E4
:1012B000084908602046FFF78FFD07480068401C7A
:1012C0000549086000F092FA70BD00004801002056
:1012D00047790020640000207000002000204FF0BB
:1012E000E021086188610248486107200861704771
:1012F0003F90020070B504460025D4B100F06EF8AE
:1013000011480068012800D100E0002050B900BF5A
:10131000102080F31188BFF34F8FBFF36F8F00BF92
:1013200000BFFEE700212046FFF7E2FA00F05EFA78
:1013300005463DB94FF0805004490860BFF34F8F18
:10134000BFF36F8F70BD00005400002004ED00E07B
:1013500004E0FFF7B5FAC820FFF7CCFFF9E703E098
:101360004FF4C870FFF7C6FFFAE7000010B5FFF7AB
:10137000C5FB0446012C15D100BF102080F3118855
:10138000BFF34F8FBFF36F8F00BF4FF0FF300F4998
:10139000086001200E49086000200E49086000F036
:1013A0006FF810E0601C08B1012000E0002050B987
:1013B00000BF102080F31188BFF34F8FBFF36F8FF2
:1013C00000BF00BFFEE70448006810BD48000020D1
:1013D000340000202C00002050000020024800684B
:1013E000401C014908607047540000201F480068F5
:1013F00018B101201E49086036E000201C49086031
:1014000000BF1C480068B0FA80F0C0F11F0101EB7A
:101410008100194A52F8200008B1012000E00020A4
:1014200050B900BF102080F31188BFF34F8FBFF376
:101430006F8F00BF00BFFEE700BF01EB81020E4BC4
:1014400003EB820042685268426000F10802436880
:10145000934201D1C26842604268D268074B1A6069
:1014600000BF00BF1846006870470000540000200D
:101470003C000020300000208000002018000020E8
:101480000EB5524800685249884201D0012000E060
:10149000002050B900BF102080F31188BFF34F8F98
:1014A000BFF36F8F00BF00BFFEE7484800684849A0
:1014B000491E884201D0012000E0002050B900BF41
:1014C000102080F31188BFF34F8FBFF36F8F00BFE1
:1014D00000BFFEE7002001903E49084600780290D8
:1014E000FF200A4610700846007800909DF8000022
:1014F00000F01000384A10701046007850B900BF54
:10150000102080F31188BFF34F8FBFF36F8F00BFA0
:1015100000BFFEE79DF800201020904308B901208D
:1015200000E0002050B900BF102080F31188BFF305
:101530004F8FBFF36F8F00BF00BFFEE707E001983A
:10154000401C01909DF800004006000E00909DF8A0
:10155000000000F080008028F1D00198082803D115
:1015600000201E4A106004E00198C0F107001B4AE9
:1015700010601A4800680002184A1060104600887F
:1015800000F4E06010609DF80800124A10700F48E7
:101590002030006840F47F000C4920310860084684
:1015A000006840F07F400860FFF798FE00200C497B
:1015B0000860FEF719FE0B48006840F040400949FA
:1015C0000860FEF7FDFD00200EBD000000ED00E00C
:1015D00071C20F4100E400E0780000207C00002090
:1015E0007400002034EF00E02DE9FC5F06460F4652
:1015F00090469946DDE90CAB4B46424639463046AB
:10160000CDE900ABFFF7B6FA054625B12846FFF74E
:10161000D5F9012401E04FF0FF342046BDE8FC9FDE
:101620002DE9F0414FF000086548006800287DD1A1
:1016300064480068451C634805601DBB00BF6248E4
:101640000068006808B9012000E0002050B900BF20
:10165000102080F31188BFF34F8FBFF36F8F00BF4F
:1016600000BFFEE7584807685848006856490860B8
:101670005648076056480068401C55490860FFF707
:10168000FBFB00BF5348006885427ED300BF4E4835
:101690000068006808B9012000E0002020B14FF088
:1016A000FF304C4908606FE047480068C068C46874
:1016B0006668B54202D24748066065E000BF6069CF
:1016C000D4E902128A60D4E902214A60211D4268ED
:1016D0008A4201D1E1684160002262610168491ECD
:1016E000016000BFA06AA0B100BFA06AD4E90712E0
:1016F0008A60D4E907214A6004F1180142688A42ED
:1017000001D1216A41600022A2620168491E016084
:1017100000BF00BF94F82C10012088402E490968B2
:1017200008432D49086000BFE16A00E03FE001EB9B
:1017300081012A4A02EB81014868A0608268E26068
:10174000211D826851608160E16A01EB8101234AB9
:1017500002EB81026261E16A01EB81011F4A52F8EA
:101760002110491CE26A02EB82021C4B43F8221052
:1017700000BF00BF1A49E06A0968C96A884286D971
:101780004FF0010883E700E000BF15480068C06A19
:1017900000EB8000114951F82000012801D94FF0D9
:1017A00001081048006808B14FF0010804E00E4835
:1017B0000068401C0C4908604046BDE8F08100000C
:1017C000540000202C0000201C00002020000020DD
:1017D0004000002048000020300000208000002051
:1017E000180000203C000020380000202DE9F041C6
:1017F00000240026FFF7CAFC00275A48006808B1F9
:10180000012000E0002050B900BF102080F31188B3
:10181000BFF34F8FBFF36F8F00BF00BFFEE751488C
:101820000068401E4F4908600846006800287DD1C6
:101830004D480068002879D063E04C48C068C4680F
:1018400000BFA06AD4E907128A60D4E907214A6080
:1018500004F1180142688A4201D1216A41600022E4
:10186000A2620168491E016000BF00BF6069D4E93F
:1018700002128A60D4E902214A60211D42688A422C
:1018800001D1E1684160002262610168491E016086
:1018900000BF00BF94F82C1001208840344909682B
:1018A00008433349086000BFE16A01EB8101314A16
:1018B00002EB81014868A0608268E260211D8268B5
:1018C00051608160E16A01EB81012A4A02EB8102E9
:1018D0006261E16A01EB8101264A52F82110491C3C
:1018E000E26A02EB8202234B43F8221000BF00BFE2
:1018F0002149E06A0968C96A884202D901201F4962
:1019000008601A48006808B9012000E0002000289B
:1019100093D00CB1FFF7B0FA1948056875B100BF54
:10192000FFF77EFE20B10120144900E015E00860B9
:101930006D1E002DF4D10020114908600F48006889
:1019400058B1012600BF0C48006830070D490860F7
:10195000BFF34F8FBFF36F8F00BFFFF741FC3046DF
:10196000BDE8F08154000020280000200C01002078
:101970003000002080000020180000203C000020E3
:101980003800002004ED00E0A81900080000002045
:101990008000000028070008281A000880000020A6
:1019A000C8B8000038070008000000000102030466
:1019B00001020304060708090000000000000000FF
:1019C0000000000000000000000000000000000017
:1019D0000000000000000000000000000000000007
:1019E00000000000000000000000000000000000F7
:1019F00000000000000000000400000000000000E3
:101A000000000000000000000000000000000000D6
:101A1000000000000000000000000000AAAAAAAA1E
:081A20000000000000000000BE
:040000050800018965
:00000001FF
