:020000040800F2
:1000000000040020A1010008090200080102000804
:1000100005020008E901000859020008000000007C
:100020000000000000000000000000005302000873
:10003000ED01000800000000510200085502000810
:10004000BB010008BB010008BB010008BB010008A0
:10005000BB010008BB010008BB010008BB01000890
:10006000BB010008BB010008BB010008BB01000880
:10007000BB010008BB010008BB010008BB01000870
:10008000BB010008BB010008BB010008BB01000860
:10009000BB010008BB010008BB010008BB01000850
:1000A000BB010008BB010008BB010008BB01000840
:1000B000BB010008BB010008BB010008BB01000830
:1000C000BB010008BB010008BB010008BB01000820
:1000D000BB010008BB010008BB010008BB01000810
:1000E000BB010008BB010008BB010008BB01000800
:1000F000BB010008BB010008BB010008BB010008F0
:10010000BB010008BB010008BB010008BB010008DF
:10011000BB010008BB010008BB010008BB010008CF
:10012000BB010008BB010008BB010008BB010008BF
:10013000BB010008BB010008BB010008BB010008AF
:10014000BB010008BB010008BB010008BB0100089F
:10015000BB010008BB010008BB010008BB0100088F
:10016000BB010008BB010008BB010008BB0100087F
:10017000BB010008BB010008BB010008BB0100086F
:10018000BB010008BB010008DFF810D000F01AF82E
:10019000004800477B020008AFF300800004002005
:1001A0000648804706480047FEE7FEE7FEE7FEE711
:1001B000FEE7FEE7FEE7FEE7FEE7FEE75702000880
:1001C00089010008064C074D06E0E06840F0010395
:1001D00094E8070098471034AC42F6D3FFF7D8FFF5
:1001E00090020008A002000800BFFEE7704701B5BA
:1001F00002E00098401E009000980028F9D108BD48
:1002000000BFFEE700BFFEE77047000010B50246E2
:1002100000200D4B186840F60343984310430A4BE7
:1002200018600A4B1B6843F00403084C2360012943
:1002300001D130BF00E020BF044B1B6823F0040352
:10024000024C236010BD00000070004010ED00E083
:10025000704770477047704700BFFEE702E008C86C
:10026000121F08C1002AFAD170477047002001E030
:1002700001C1121F002AFBD1704740F6FF70FFF743
:10028000B6FF01210846FFF7C1FF00BFFEE70000EF
:10029000A002000800000020000400006C0200081A
:040000050800018965
:00000001FF
