:020000040800F2
:1000000040400020A1010008930400081F040008DC
:10001000910400080D0300082D08000800000000EE
:100020000000000000000000000000000D070008B4
:100030000F03000800000000A90400086F07000873
:10004000BB010008BB010008BB010008BB010008A0
:10005000BB010008BB010008BB0100082503000824
:10006000BB010008BB010008BB010008BB01000880
:10007000BB010008BB010008BB010008BB01000870
:10008000BB010008BB010008C9020008BB01000851
:10009000BB010008BB010008BB010008BB01000850
:1000A000BB010008BB010008BB010008BB01000840
:1000B00075070008BB010008BB010008BB01000870
:1000C000BB010008BB010008BB010008BB01000820
:1000D000BB010008BB010008BB010008BB01000810
:1000E000BB010008BB010008BB010008BB01000800
:1000F000BB010008BB010008BB010008BB010008F0
:10010000BB010008BB010008BB010008BB010008DF
:10011000BB010008BB010008BB010008BB010008CF
:10012000BB010008BB010008BB010008BB010008BF
:10013000BB010008BB010008BB010008BB010008AF
:10014000BB010008BB010008BB010008BB0100089F
:10015000BB010008BB010008BB010008BB0100088F
:10016000BB010008BB010008BB010008BB0100087F
:10017000BB010008BB010008BB010008BB0100086F
:10018000BB010008BB010008DFF810D000F04CF8FC
:1001900000480047290E0008AFF3008040400020CF
:1001A0000648804706480047FEE7FEE7FEE7FEE711
:1001B000FEE7FEE7FEE7FEE7FEE7FEE7730700085F
:1001C000890100082DE9F05F0546002092469B4614
:1001D00088460646814640241BE02846414647465D
:1001E000224600F042F853465A46C01A914110D3B5
:1001F00011461846224600F029F82D1A67EB01082F
:100200004F4622460120002100F020F817EB00099C
:100210004E41201EA4F10104DFDC484631462A4647
:100220004346BDE8F09F0000064C074D06E0E0683D
:1002300040F0010394E8070098471034AC42F6D32D
:10024000FFF7A6FF640E0008840E0008202A04DBD6
:10025000203A00FA02F1002070479140C2F12003D9
:1002600020FA03F3194390407047202A04DB203A18
:1002700021FA02F00021704721FA02F3D040C2F1C6
:100280002002914008431946704750F8882F8A434E
:100290000260704703460020C1EBC10103EB8101FE
:1002A000002A08D0012A09D0022A0AD0032A01D143
:1002B000C86A80B27047086A80B27047486A80B2E4
:1002C0007047886A80B2704710B50D4C002201213A
:1002D0002046FFF7DFFF0B490860C0F30A004FF428
:1002E000A57110FB01F00749C00A10310860042114
:1002F0002046FFF7CAFF04490120086010BD000036
:10030000002001401C00002010000020FEE7704784
:1003100001B502E00098401E009000980028F9D135
:1003200008BD000010B5022000F016F8002809D022
:100330000548016881F480410160BDE81040022059
:1003400000F004B810BD0000140802400149086024
:1003500070470000143C014001460020024A126828
:100360000A4200D001207047143C01402DE9F041C1
:10037000002201274FF0030C07FA02F50B682B400F
:10038000AB422CD1066853000CFA03F4A643066076
:100390000E79D0F800809E4046EA080606600E7985
:1003A000012E01D0022E12D18668A64386604E79B6
:1003B000D0F808809E4046EA080686604668AE434C
:1003C000466045688E799640B6B235434560C5684B
:1003D000A543C560CC799C40C3681C43C460521CD3
:1003E000102AC9D3BDE8F08110B54B07DB0E9A4047
:1003F000C90800EB8100016A0F249C40A1430162FF
:10040000016A1143016210BD418370474FF6FF71CD
:1004100001600021017141718171C1717047FEE776
:1004200070B505460C4645F2555000F02BF82846AD
:1004300000F01CF8204600F01FF800F00FF8BDE8AF
:10044000704000F001B8000002494CF6CC40086052
:100450007047000000300040AFF3008002494AF6C8
:10046000AA20086070470000003000400149486041
:10047000704700000030004001498860704700006C
:100480000030004001490860704700000030004023
:10049000FEE77047024908430249086070470000C0
:1004A0000000FA050CED00E07047000010B50848A8
:1004B0000368001D0268001D016806A000F0B8F97D
:1004C00011A000F0B5F9BDE8104010A000F0B0B9DF
:1004D000107AFF1F0D0A435055203A20484333320B
:1004E00046343031582C204C51465036342C20554F
:1004F0004944203D202530385820253038582025C3
:100500003038580A0D0000000A0D00002A2A2A2A55
:100510002A2A2A2A2A2A2A2A2A2A2A2A2A2A2A2A3B
:100520002A2A2A2A2A2A2A2A2A2A2A2A2A2A2A2A2B
:100530002A2A2A2A2A2A2A2A2A2A2A2A2A2A2A2A1B
:100540002A2A2A2A2A2A2A2A2A0A0D00054A0029A2
:1005500003D0116801431160704711688143116035
:100560007047000024380240054A002903D0116872
:1005700001431160704711688143116070470000AA
:10058000343802400248016841F0807101607047D0
:100590005038024070B5244B196801F00C01234C0F
:1005A00000291ED0661004291DD008291DD0046022
:1005B000196801F0F00109091D4A545C0168E14025
:1005C00041601C6804F4E054A40A145D21FA04F4A8
:1005D00084601B6803F460435B0BD25CD140C16054
:1005E00070BD0460E4E70660E2E70F4A121F11687D
:1005F000C1F38055116801F03F0135B1B6FBF1F14F
:100600001468C4F38814614305E0B4FBF1F1146885
:10061000C4F3881461431268C2F30142521C5200B1
:10062000B1FBF2F10160C3E7083802400024F40096
:100630000000002002460020510901290BD00229A8
:100640000DD00949096802F01F02012393400B42B3
:1006500000D001207047044950390968F3E7024986
:10066000091F0968EFE7000050380240024800689F
:1006700000F00C007047000008380240034A11687F
:1006800021F0F0010143116070470000083802407A
:10069000024900220A7008707047000002380240C8
:1006A000034A116821F4E0510143116070470000D2
:1006B00008380240034A116821F4604141EAC00051
:1006C0001060704708380240014908667047000012
:1006D0000000474210B5029C41EA82114FF0FF3200
:1006E00002EB530241EA0241014341EA046001493D
:1006F000086010BD04380240034A116821F003016C
:10070000014311607047000008380240704708B587
:100710000120FFF7BDFF3120FFF78CFF0028FAD042
:100720000020FFF7D1FF0020FFF7A8FF4FF4A050F3
:10073000FFF7B6FF4FF48050FFF7BCFF08200146DB
:10074000009002234FF4A872C004FFF7C3FF0120FA
:10075000FFF7BAFF3920FFF76DFF0028FAD002201B
:10076000FFF7CAFFFFF782FF0828FBD108BD00F0A2
:1007700027B8704710B501218C07204600F014F807
:1007800000280AD00548016881F4804101602046B4
:10079000BDE81040012100F003B810BD140802406C
:1007A000C94389B2016170470246002013690B40BA
:1007B000D2680A40002B02D0002A00D001207047E6
:1007C00003480168002902D00168491E0160704792
:1007D00014000020026A8A4302627047002A03D094
:1007E00002680A430260704702688A4302607047E9
:1007F00002460020D2690A4200D00120704710B59D
:100800004A890B880C8942EA4322CB88DB0143EA00
:1008100084131A438B891A4302604A88C26089880C
:10082000016110BDC1F3080181627047FEE700005D
:100830000FB4054B10B503A9044A029800F018F84C
:1008400010BC5DF814FB0000FD0D0008180000202E
:1008500002E008C8121F08C1002AFAD17047704789
:10086000002001E001C1121F002AFBD170470000E7
:100870002DE9FF4F8DB00F460546002606E02528DE
:100880000BD0DDE90F1290476D1C761C28780028EC
:10089000F5D111B03046BDE8F08F0024A246A14644
:1008A0000122E94900E0044315F8013F203B02FA28
:1008B00003F00842F7D128782A2810D06FF02F02D1
:1008C0002878A0F13001092914D80AEB8A0102EB3B
:1008D000410144F0020400EB010A6D1CF0E701CF76
:1008E0005FEA000A03D544F40054CAF1000A44F058
:1008F00002046D1C28782E2817D115F8010F44F03A
:1009000004042A280ED06FF02F022878A0F13001BD
:1009100009290AD809EB890102EB410100EB010921
:100920006D1CF2E757F8049B6D1C28786C280FD0DB
:1009300006DC4C2817D068280DD06A2814D104E0B2
:10094000742810D07A280FD10DE044F400140AE086
:1009500044F4801401E044F440146978814202D1E7
:1009600004F580146D1C6D1C28786E281ED00CDCDC
:10097000632830D004DC00288BD0582811D19FE0A8
:10098000642867D069280CD164E073282DD004DC7A
:100990006F2872D0702804D194E075286ED0782822
:1009A0006DD0DDE90F129047761C4BE1C4F3025085
:1009B000022806D0032809D0042801CF09D00660F8
:1009C00040E101CFF117C0E900613BE101CF0680B2
:1009D00038E1067036E117F8040B8DF800000020AE
:1009E0008DF80100EB46012003E057F804BB4FF0FF
:1009F000FF3061074FF0000102D40DE008F1010162
:100A0000884649450FDA8045F8DB1BF808100029B5
:100A1000F4D108E008F1010188468142FADB1BF8B5
:100A200008100029F6D1DDE90F23AAEB0800814662
:100A3000214600F031F9304400EB080604E0DDE91E
:100A40000F121BF8010B9047B8F10108F7D22146AD
:100A50004846F2E00A21C4F302524FF0000B08911D
:100A6000022A04D001CFC117032A09D00AE0FF1DD2
:100A700027F00707F7E8020108E02CE01EE01FE07E
:100A800000B2C117042A01D140B2C117021E71F190
:100A9000000206DA0023D0EB030063EB01012D22F4
:100AA00002E0220504D52B228DF82420012203E048
:100AB000E20701D02022F7E7904653E00A210BE03D
:100AC000102109E010214FF0000B44F004044FF016
:100AD0000809089103E008214FF0000B0891C4F3C6
:100AE0000252022A04D001CF0021032A06D006E0D8
:100AF000FF1D27F00707F7E8020103E080B2042A90
:100B000000D1C0B24FF0000822072BD52A78702AF6
:100B100007D0DDF820C08CF0100C5CEA0B0C05D07F
:100B20000EE040228DF82420012208E050EA010363
:100B300006D030238DF824308DF8252002229046EF
:100B4000089B83F0080353EA0B030BD150EA010220
:100B500001D1620706D530228DF824204FF001081C
:100B6000A9F101092A78582A04D038A20B9208AAC0
:100B70000A920BE03AA2F9E75B46089AFFF722FBDC
:100B80000B9B9B5C0A9A521E0A92137050EA010258
:100B9000F2D10A98ADEB000000F1200B600702D5FE
:100BA00024F4803401E04FF00109D94502DDA9EBBE
:100BB0000B0000E0002000EB0B0141440890AAEB81
:100BC000010AE00306D4DDE90F232146504600F078
:100BD00063F806444FF0000908E009A911F809007C
:100BE000DDE90F12904709F10109761CC145F4DBDC
:100BF000E0030CD5DDE90F232146504600F04CF808
:100C0000064404E0DDE90F1230209047761C089975
:100C1000481E08900029F5DC08E00A980A99007837
:100C2000491C0A91DDE90F129047761CBBF10001C7
:100C3000ABF1010BF1DC21465046DDE90F2300F05A
:100C400019F806446D1C21E60928010030313233C1
:100C500034353637383961626364656600000000F8
:100C600030313233343536373839414243444546E2
:100C7000000000002DE9F041044600251E461746FD
:100C8000880404D405E039462020B0476D1C641E5A
:100C9000F9D52846BDE8F0812DE9F041044600254C
:100CA0001E469046C80301D5302700E0202788045F
:100CB00004D505E041463846B0476D1C641EF9D5A1
:100CC0002846BDE8F08110B54FF4C060FFF7E2FBA5
:100CD00000F026F8BDE81040AFF300807CB501219C
:100CE0000420FFF733FC6846FFF790FB01208DF8E6
:100CF000040000208DF806008DF8070003208DF811
:100D000005004FF480440094044D69462846FFF7DF
:100D10002DFB21462846FFF777FB7CBD00080240EB
:100D200070B58AB001210846FFF710FC01211020A0
:100D3000FFF71AFC2F4E062202213046FFF754FB24
:100D4000062203213046FFF74FFB00248DF8264092
:100D500001218DF8271002258DF8245004210891D7
:100D600003218DF8251008A93046FFF7FFFA8DF80A
:100D700024500820089008A93046FFF7F7FA684683
:100D8000FFF708FC039800EBC00101EB00104FF4E3
:100D9000E121B0FBF1F16422B1FBF2F080B26FF01F
:100DA0001803434301EB8301322303EB0111B1FB31
:100DB000F2F101F00F010022ADF81020ADF81200A1
:100DC000ADF81410ADF81640ADF81840ADF81C4061
:100DD000ADF81A40084C04A92046FFF710FD012287
:100DE00011462046FFF7FAFC02212046FFF7F2FCED
:100DF0000AB070BD000002400010014070B504460A
:100E0000084DE1B22846FFF70DFD02212846FFF705
:100E1000EFFC0028F9D002212846FFF7DBFC204632
:100E200070BD000000100140FFF771FCFFF74BFFA1
:100E300040F6FF742046FFF76BFAFFF737FB7D2083
:100E4000FFF7F8FB28B1064A4FF480401080FFF707
:100E500099FB21460120FFF7E3FAFFF7FDFAFCE7D3
:100E600018080240840E0008000000201C0000004A
:100E700050080008A00E00081C00002024400000BC
:100E800060080008000000000102030401020304DE
:100E90000607080900000000000000000000000034
:040000050800018965
:00000001FF
