:020000040800F2
:1000000008040020A101000849030008BD020008FF
:1000100045030008E9010008C504000800000000CD
:100020000000000000000000000000005D04000867
:10003000ED010008000000004B030008C1040008A7
:10004000BB010008BB010008BB010008BB010008A0
:10005000BB010008BB010008BB010008BB01000890
:10006000BB010008BB010008BB010008BB01000880
:10007000BB010008BB010008BB010008BB01000870
:10008000BB010008BB010008BB010008BB01000860
:10009000BB010008BB010008BB010008BB01000850
:1000A000BB010008BB010008BB010008BB01000840
:1000B000BB010008BB010008BB010008BB01000830
:1000C000BB010008BB010008BB010008BB01000820
:1000D000BB010008BB010008BB010008BB01000810
:1000E000BB010008BB010008BB010008BB01000800
:1000F000BB010008BB010008BB010008BB010008F0
:10010000BB010008BB010008BB010008BB010008DF
:10011000BB010008BB010008BB010008BB010008CF
:10012000BB010008BB010008BB010008BB010008BF
:10013000BB010008BB010008BB010008BB010008AF
:10014000BB010008BB010008BB010008BB0100089F
:10015000BB010008BB010008BB010008BB0100088F
:10016000BB010008BB010008BB010008BB0100087F
:10017000BB010008BB010008BB010008BB0100086F
:10018000BB010008BB010008DFF810D000F01AF82E
:100190000048004769050008AFF30080080400200C
:1001A0000648804706480047FEE7FEE7FEE7FEE711
:1001B000FEE7FEE7FEE7FEE7FEE7FEE7C304000812
:1001C00089010008064C074D06E0E06840F0010395
:1001D00094E8070098471034AC42F6D3FFF7D8FFF5
:1001E00080050008A005000800BFFEE7704701B5C4
:1001F00002E00098401E009000980028F9D108BD48
:10020000F0B50A4600210023002400BF3DE001258F
:1002100005FA01F3156805EA03049C4234D1056828
:100220004F000326BE40B543056015794E00B5402A
:100230000668354305601579012D02D01579022D28
:1002400016D185684F000326BE40B54385605579B9
:100250004E00B540866835438560456801268E406E
:10026000B5434560456896798E40B6B235434560E2
:10027000C5684F000326BE40B543C560D5794E0022
:10028000B540C6683543C560491C1029BFD3F0BDD1
:100290000246002013690B400BB1012000E0002052
:1002A000704741837047018370474FF6FF710160CB
:1002B0000021017141718171C171704700BFFEE77A
:1002C00010B501210B4800F01BF80B4908700846D7
:1002D0000078012804D181030848FFF7E2FF07E016
:1002E00005480078022803D141030448FFF7DBFFEB
:1002F00010BD000000000240000000200008024085
:1003000070B505460E4631462846FFF7C1FF012865
:1003100000D100E0002004460948007828B9012CEB
:1003200003D107480470012070BD054800780128FA
:1003300004D11CB9024804700220F5E70020F3E75D
:100340000100002000BFFEE77047704729B1064A50
:1003500012680243044B1A6004E0034A12688243A5
:10036000014B1A60704700002438024010B5014666
:100370000022002300204A11012A02D10A4C2368DE
:1003800008E0022A03D1084C4C34236802E0064CF2
:100390005034236801F01F02012494401C400CB12A
:1003A000012000E0002010BD003802400248006833
:1003B00000F00C00704700000838024001460020A1
:1003C000034A106820F0F0000843106070470000F6
:1003D000083802400021024A117011460870704727
:1003E0000238024001460020034A106820F4E05021
:1003F00008431060704700000838024001460020A2
:10040000034A106820F4604040EAC1001060704761
:100410000838024001490866704700000000474262
:1004200070B5049C41EA82150126C6EB530645EAE5
:100430000645054345EA0465014E356070BD000080
:100440000438024001460020034A106820F00300EF
:10045000084310607047000008380240704708B534
:100460000120FFF7B7FF00BF3120FFF77FFF002813
:10047000FAD00020FFF7CEFF0020FFF79FFF0020FB
:10048000FFF7B0FF0020FFF7B9FF082002234FF469
:10049000A87201460090C004FFF7C2FF0120FFF7D9
:1004A000B9FF00BF3920FFF761FF0028FAD0022012
:1004B000FFF7C8FF00BFFFF779FF0828FBD108BD91
:1004C0007047704700BFFEE702E008C8121F08C16E
:1004D000002AFAD170477047002001E001C1121FC5
:1004E000002AFBD1704710B500F01CF800F002F8AC
:1004F00010BD00001CB501210846FFF727FF684624
:10050000FFF7D3FE00208DF8040002208DF80700CD
:100510000120009069460248FFF772FE1CBD0000F2
:10052000000002401CB501210420FFF70FFF6846C0
:10053000FFF7BBFE01208DF8040000208DF80600B7
:100540008DF8070003208DF805004FF480400090DF
:1005500069460448FFF754FE4FF480410148FFF715
:10056000A0FE1CBD00080240FFF779FFFFF7BBFFAC
:1005700040F6FF70FFF73BFE01E0FFF7A1FEFCE74E
:10058000A00500080000002004000000C8040008C6
:10059000A40500080400002004040000D80400089A
:0405A0000000000057
:040000050800018965
:00000001FF
