:020000040800F2
:1000000000040020A1010008AF020008A7020008B8
:10001000AB020008E90100082D0400080000000000
:10002000000000000000000000000000C503000800
:10003000ED01000800000000B102000829040008DA
:10004000BB010008BB010008BB010008BB010008A0
:10005000BB010008BB010008BB010008BB01000890
:10006000BB010008BB010008BB010008BB01000880
:10007000BB010008BB010008BB010008BB01000870
:10008000BB010008BB010008BB010008BB01000860
:10009000BB010008BB010008BB010008BB01000850
:1000A000BB010008BB010008BB010008BB01000840
:1000B000BB010008BB010008BB010008BB01000830
:1000C000BB010008BB010008BB010008BB01000820
:1000D000BB010008BB010008BB010008BB01000810
:1000E000BB010008BB010008BB010008BB01000800
:1000F000BB010008BB010008BB010008BB010008F0
:10010000BB010008BB010008BB010008BB010008DF
:10011000BB010008BB010008BB010008BB010008CF
:10012000BB010008BB010008BB010008BB010008BF
:10013000BB010008BB010008BB010008BB010008AF
:10014000BB010008BB010008BB010008BB0100089F
:10015000BB010008BB010008BB010008BB0100088F
:10016000BB010008BB010008BB010008BB0100087F
:10017000BB010008BB010008BB010008BB0100086F
:10018000BB010008BB010008DFF810D000F01AF82E
:10019000004800479D040008AFF3008000040020E1
:1001A0000648804706480047FEE7FEE7FEE7FEE711
:1001B000FEE7FEE7FEE7FEE7FEE7FEE72B040008AA
:1001C00089010008064C074D06E0E06840F0010395
:1001D00094E8070098471034AC42F6D3FFF7D8FFF5
:1001E000B0040008C004000800BFFEE7704701B576
:1001F00002E00098401E009000980028F9D108BD48
:10020000F0B50A4600210023002400BF3DE001258F
:1002100005FA01F3156805EA03049C4234D1056828
:100220004F000326BE40B543056015794E00B5402A
:100230000668354305601579012D02D01579022D28
:1002400016D185684F000326BE40B54385605579B9
:100250004E00B540866835438560456801268E406E
:10026000B5434560456896798E40B6B235434560E2
:10027000C5684F000326BE40B543C560D5794E0022
:10028000B540C6683543C560491C1029BFD3F0BDD1
:10029000418370474FF6FF71016000210171417188
:1002A0008171C171704700BFFEE700BFFEE7704774
:1002B0007047000029B1064A12680243044B1A60D5
:1002C00004E0034A12688243014B1A607047000041
:1002D0002438024010B501460022002300204A11B4
:1002E000012A02D10A4C236808E0022A03D1084CF3
:1002F0004C34236802E0064C5034236801F01F029E
:10030000012494401C400CB1012000E0002010BDED
:10031000003802400248006800F00C0070470000FE
:100320000838024001460020034A106820F0F0001F
:100330000843106070470000083802400021024A5C
:1003400011701146087070470238024001460020C3
:10035000034A106820F4E050084310607047000022
:100360000838024001460020034A106820F460402B
:1003700040EAC10010607047083802400149086631
:10038000704700000000474270B5049C41EA8215A6
:100390000126C6EB530645EA0645054345EA0465D2
:1003A000014E356070BD0000043802400146002057
:1003B000034A106820F003000843106070470000F3
:1003C00008380240704708B50120FFF7B7FF00BFAB
:1003D0003120FFF77FFF0028FAD00020FFF7CEFF83
:1003E0000020FFF79FFF0020FFF7B0FF0020FFF77E
:1003F000B9FF082002234FF4A87201460090C00400
:10040000FFF7C2FF0120FFF7B9FF00BF3920FFF758
:1004100061FF0028FAD00220FFF7C8FF00BFFFF7F6
:1004200079FF0828FBD108BD7047704700BFFEE781
:1004300002E008C8121F08C1002AFAD170477047AD
:10044000002001E001C1121F002AFBD1704710B546
:1004500000F002F810BD00001CB501210420FFF7D8
:1004600029FF6846FFF716FF01208DF804000020E1
:100470008DF806008DF8070003208DF805004FF475
:100480008040009069460448FFF7BAFE4FF480416F
:100490000148FFF7FDFE1CBD00080240FFF793FF77
:1004A000FFF7D5FF40F6FF70FFF7A1FE00BFFEE7A4
:1004B000C004000800000020000400004004000800
:040000050800018965
:00000001FF
