:020000040800F2
:1000000040400020A1010008990400089104000864
:100010009504000845030008D10A0008000000000C
:1000200000000000000000000000000009080008B7
:1000300049030008000000002905000871080008B5
:10004000BB010008BB010008BB010008BB010008A0
:10005000BB010008BB010008BB0100085D030008EC
:10006000BB010008BB010008BB010008BB01000880
:10007000BB010008BB010008BB010008BB01000870
:10008000BB010008BB010008FD020008BB0100081D
:10009000BB010008BB010008BB010008BB01000850
:1000A000BB010008BB010008BB010008BB01000840
:1000B000E5080008BB010008BB010008BB010008FF
:1000C000BB010008BB010008BB010008BB01000820
:1000D000BB010008BB010008BB010008BB01000810
:1000E000BB010008BB010008BB010008BB01000800
:1000F000BB010008BB010008BB010008BB010008F0
:10010000BB010008BB010008BB010008BB010008DF
:10011000BB010008BB010008BB010008BB010008CF
:10012000BB010008BB010008BB010008BB010008BF
:10013000BB010008BB010008BB010008BB010008AF
:10014000BB010008BB010008BB010008BB0100089F
:10015000BB010008BB010008BB010008BB0100088F
:10016000BB010008BB010008BB010008BB0100087F
:10017000BB010008BB010008BB010008BB0100086F
:10018000BB010008BB010008DFF810D000F04CF8FC
:100190000048004719110008AFF3008040400020DC
:1001A0000648804706480047FEE7FEE7FEE7FEE711
:1001B000FEE7FEE7FEE7FEE7FEE7FEE7E1080008F0
:1001C000890100082DE9F05F0546002092469B4614
:1001D00088460646814640241BE02846414647465D
:1001E000224600F042F853465A46C01A914110D3B5
:1001F00011461846224600F029F82D1A67EB01082F
:100200004F4622460120002100F020F817EB00099C
:100210004E41201EA4F10104DFDC484631462A4647
:100220004346BDE8F09F0000064C074D06E0E0683D
:1002300040F0010394E8070098471034AC42F6D32D
:10024000FFF7A6FF3011000850110008202A04DB38
:10025000203A00FA02F1002070479140C2F12003D9
:1002600020FA03F3194390407047202A04DB203A18
:1002700021FA02F00021704721FA02F3D040C2F1C6
:1002800020029140084319467047D0F888208A43DD
:10029000C0F88820704730B50346002032B1012AEB
:1002A0000DD0022A14D0032A24D11AE0C1EBC105D3
:1002B00003F1140404EB8504E468A0B21BE0C1EB75
:1002C000C10503F1140404EB85042469A0B212E013
:1002D000C1EBC10503F1140404EB85046469A0B209
:1002E00009E0C1EBC10503F1140404EB8504A46922
:1002F000A0B200E000BF00BF30BD000010B500227A
:1003000001210C48FFF7C7FF0B4908600846008829
:10031000C0F30A004FF4A57110FB01F0C00A0749B1
:10032000086004210348FFF7B0FF0120044908607A
:1003300010BD0000002001402000002030000020FF
:100340001400002000BFFEE7704701B502E00098EE
:10035000401E009000980028F9D108BD10B5022079
:1003600000F014F840B10548006880F4804003496B
:100370000860022000F004F810BD000014080240DC
:100380000149086070470000143C0140014600200C
:10039000034A12680A400AB1012000E000207047B9
:1003A000143C0140F0B50A4600210023002400BFA0
:1003B0003DE0012505FA01F3156805EA03049C42B6
:1003C00034D105684F000326BE40B543056015795A
:1003D0004E00B5400668354305601579012D02D001
:1003E0001579022D16D185684F000326BE40B5430E
:1003F000856055794E00B54086683543856045680F
:1004000001268E40B5434560456896798E40B6B268
:1004100035434560C5684F000326BE40B543C560FF
:10042000D5794E00B540C6683543C560491C1029D2
:10043000BFD3F0BDF0B5002300244D07ED0E02FA46
:1004400005F3CE1000F1200555F826504E07F70EA3
:100450000F26BE40B543CF1000F1200646F82750C6
:10046000CE1000F1200555F8265045EA0304CE10C1
:1004700000F1200545F82640F0BD418370474FF656
:10048000FF7101600021017141718171C17170477B
:1004900000BFFEE700BFFEE77047000070B5002117
:1004A00000230F22C4781CB3174C246804F4E064C2
:1004B000C4F5E064C4F30721C1F10404E3B20A41C6
:1004C00044789C40E1B28478144021430C07210E0B
:1004D0000E4C05786155047804F01F050124AC40EA
:1004E00005786D11AD0005F1E025C5F8004109E082
:1004F000047804F01F050124AC40054D0678761100
:1005000045F8264070BD00000CED00E000E400E07E
:1005100080E100E002490143024A11607047000097
:100520000000FA050CED00E07047000070B50948C6
:100530000468001D0568001D066823462A463146EA
:1005400005A000F0C7FA11A000F0C4FA10A000F056
:10055000C1FA70BD107AFF1F0D0A435055203A2092
:100560004843333246343031582C204C51465036B3
:10057000342C20554944203D202530385820253042
:10058000385820253038580A0D0000000A0D0000A8
:100590002A2A2A2A2A2A2A2A2A2A2A2A2A2A2A2ABB
:1005A0002A2A2A2A2A2A2A2A2A2A2A2A2A2A2A2AAB
:1005B0002A2A2A2A2A2A2A2A2A2A2A2A2A2A2A2A9B
:1005C0002A2A2A2A2A2A2A2A2A2A2A2A2A0A0D00F2
:1005D00029B1064A12680243044B1A6004E0034A38
:1005E00012688243014B1A607047000024380240B1
:1005F00029B1064A12680243044B1A6004E0034A18
:1006000012688243014B1A60704700003038024084
:1006100029B1064A12680243044B1A6004E0034AF7
:1006200012688243014B1A60704700003438024060
:10063000F0B5002100220024022500260223324FBB
:100640003F6807F00C0121B1042905D0082937D1F2
:1006500005E02E4F076036E02D4F076033E02A4F4C
:100660003F1F3F68C7F38056274F3F1F3F6807F083
:100670003F036EB1264FB7FBF3F7DFF88CC0ACF148
:10068000040CDCF800C0CCF3881C07FB0CF40CE075
:100690001E4FB7FBF3F7DFF870C0ACF1040CDCF8C9
:1006A00000C0CCF3881C07FB0CF4174F3F1F3F68BA
:1006B000C7F301477F1C7D00B4FBF5F7076002E03C
:1006C000124F076000BF00BF0F4F3F6807F0F001F7
:1006D0000909104F7A5C0768D74047600A4F3F68A6
:1006E00007F4E051890A0B4F7A5C4768D74087606E
:1006F000054F3F6807F46041490B064F7A5C476835
:10070000D740C760F0BD0000083802400024F40064
:1007100000127A000400002010B5014600220023D8
:1007200000204A11012A02D10A4C236808E0022A5B
:1007300003D1084C4C34236802E0064C5034236843
:1007400001F01F02012494401C400CB1012000E084
:10075000002010BD003802400248006800F00C0084
:10076000704700000838024001460020034A106824
:1007700020F0F00008431060704700000838024085
:100780000021024A11701146087070470238024079
:1007900001460020034A106820F4E050084310602E
:1007A000704700000838024001460020034A1068E4
:1007B00020F4604040EAC1001060704708380240F1
:1007C00001490866704700000000474270B5049C6C
:1007D00041EA82150126C6EB530645EA0645054364
:1007E00045EA0465014E356070BD000004380240E2
:1007F00001460020034A106820F0030008431060FF
:100800007047000008380240704708B50120FFF724
:10081000B7FF00BF3120FFF77FFF0028FAD000208C
:10082000FFF7CEFF0020FFF79FFF4FF4A050FFF728
:10083000AFFF4FF48050FFF7B7FF082002234FF4BB
:10084000A87201460090C004FFF7C0FF0120FFF727
:10085000B7FF00BF3920FFF75FFF0028FAD0022062
:10086000FFF7C6FF00BFFFF777FF0828FBD108BDE1
:1008700010B500F0F5F810BD30B5164800684FF41B
:100880007A72B0FBF2F1481EB0F1807F01D30120F3
:100890001BE0481E4FF0E022506150170F22002845
:1008A00007DA13071D0E0C4B00F00F04241F1D5513
:1008B00003E013071C0E094B1C5400BF00204FF02F
:1008C000E022906107201061002008B100BFFEE720
:1008D00030BD00000000002018ED00E000E400E062
:1008E0007047000010B50121880700F02FF848B1CB
:1008F0000548006880F480400349086001218807AA
:1009000000F014F810BD00001408024021B1026884
:1009100042F08002026004E002684FF67F731A40E2
:1009200002607047CA4392B202617047CA4392B2F2
:100930000261704721B1026842F00102026004E0E6
:1009400002684FF6FE731A400260704730B50246E7
:10095000002000230024156905EA0103D56805EA93
:10096000010413B10CB1012000E0002030BD10B52E
:100970001AB1C3680B43C36004E0C368CC43A4B29C
:100980002340C36010BD0EB5684600F049F8012150
:100990000846FFF72DFE42F20F70019042F2CF00A1
:1009A000ADF8000000208DF80A00ADF80800694697
:1009B0004FF0804000F012F801218807FFF7B2FFE6
:1009C00001218807FFF7A2FF012211469007FFF7D8
:1009D000CEFF01218807FFF7ADFF0EBD002203689F
:1009E0009AB24FF68F731A404B881A434FF6FF4363
:1009F0001A400B891A4302604B68C3620B888362FA
:100A0000054B984202D0054B984201D18B7A036383
:100A100001234361704700000000014000040140D1
:100A20004FF0FF31416000210180018141808172DE
:100A3000704710B500F003F8FFF7A5FF10BD08B52B
:100A40001C208DF8000000208DF8010003208DF897
:100A5000020001208DF803006846FFF71FFD08BD66
:100A60000448006820B103480068401E014908603E
:100A70007047000018000020026A8A430262704733
:100A80001AB103680B43036002E003688B43036001
:100A9000704702460020D3690B400BB1012000E0F3
:100AA000002070470A885202CB8842EAC3120B89A1
:100AB00042EA83124B891A438B891A4302604A889F
:100AC000C2608A8802617047C1F30802826270477F
:100AD00000BFFEE70FB4054B10B503A9044A029806
:100AE00000F018F810BC5DF814FB0000ED100008D1
:100AF0001C00002002E008C8121F08C1002AFAD119
:100B000070477047002001E001C1121F002AFBD18D
:100B1000704700002DE9FF4F8DB00F4605460026B7
:100B200006E025280BD0DDE90F1290476D1C761CDE
:100B300028780028F5D111B03046BDE8F08F0024A8
:100B4000A246A1460122E94900E0044315F8013F0D
:100B5000203B02FA03F00842F7D128782A2810D067
:100B60006FF02F022878A0F13001092914D80AEB80
:100B70008A0102EB410144F0020400EB010A6D1C02
:100B8000F0E701CF5FEA000A03D544F40054CAF14C
:100B9000000A44F002046D1C28782E2817D115F89D
:100BA000010F44F004042A280ED06FF02F02287899
:100BB000A0F1300109290AD809EB890102EB4101B2
:100BC00000EB01096D1CF2E757F8049B6D1C2878B7
:100BD0006C280FD006DC4C2817D068280DD06A2866
:100BE00014D104E0742810D07A280FD10DE044F419
:100BF00000140AE044F4801401E044F440146978DD
:100C0000814202D104F580146D1C6D1C28786E2879
:100C10001ED00CDC632830D004DC00288BD0582890
:100C200011D19FE0642867D069280CD164E0732853
:100C30002DD004DC6F2872D0702804D194E0752880
:100C40006ED078286DD0DDE90F129047761C4BE10D
:100C5000C4F30250022806D0032809D0042801CF8B
:100C600009D0066040E101CFF117C0E900613BE126
:100C700001CF068038E1067036E117F8040B8DF8D5
:100C8000000000208DF80100EB46012003E057F83A
:100C900004BB4FF0FF3061074FF0000102D40DE0BC
:100CA00008F10101884649450FDA8045F8DB1BF859
:100CB00008100029F4D108E008F1010188468142BA
:100CC000FADB1BF808100029F6D1DDE90F23AAEBA7
:100CD00008008146214600F031F9304400EB080657
:100CE00004E0DDE90F121BF8010B9047B8F1010891
:100CF000F7D221464846F2E00A21C4F302524FF0EF
:100D0000000B0891022A04D001CFC117032A09D091
:100D10000AE0FF1D27F00707F7E8020108E02CE0D2
:100D20001EE01FE000B2C117042A01D140B2C11772
:100D3000021E71F1000206DA0023D0EB030063EB20
:100D400001012D2202E0220504D52B228DF824205A
:100D5000012203E0E20701D02022F7E7904653E0AA
:100D60000A210BE0102109E010214FF0000B44F0A4
:100D700004044FF00809089103E008214FF0000B2C
:100D80000891C4F30252022A04D001CF0021032AA1
:100D900006D006E0FF1D27F00707F7E8020103E091
:100DA00080B2042A00D1C0B24FF0000822072BD530
:100DB0002A78702A07D0DDF820C08CF0100C5CEA8D
:100DC0000B0C05D00EE040228DF82420012208E013
:100DD00050EA010306D030238DF824308DF8252009
:100DE00002229046089B83F0080353EA0B030BD1C1
:100DF00050EA010201D1620706D530228DF8242085
:100E00004FF00108A9F101092A78582A04D038A224
:100E10000B9208AA0A920BE03AA2F9E75B46089AFD
:100E2000FFF7D0F90B9B9B5C0A9A521E0A92137033
:100E300050EA0102F2D10A98ADEB000000F1200B5C
:100E4000600702D524F4803401E04FF00109D94550
:100E500002DDA9EB0B0000E0002000EB0B01414498
:100E60000890AAEB010AE00306D4DDE90F2321462E
:100E7000504600F063F806444FF0000908E009A965
:100E800011F80900DDE90F12904709F10109761CFC
:100E9000C145F4DBE0030CD5DDE90F2321465046C4
:100EA00000F04CF8064404E0DDE90F1230209047D2
:100EB000761C0899481E08900029F5DC08E00A987D
:100EC0000A990078491C0A91DDE90F129047761CB7
:100ED000BBF10001ABF1010BF1DC21465046DDE92D
:100EE0000F2300F019F806446D1C21E609280100C3
:100EF0003031323334353637383961626364656690
:100F00000000000030313233343536373839414251
:100F100043444546000000002DE9F0410446002509
:100F20001E461746880404D405E039462020B04701
:100F30006D1C641EF9D52846BDE8F0812DE9F0410D
:100F4000044600251E469046C80301D5302700E020
:100F50002027880404D505E041463846B0476D1C7B
:100F6000641EF9D52846BDE8F08110B54FF4C06085
:100F7000FFF7D0FAFFF780FC00F028F800F004F843
:100F8000FFF757FD10BD00001CB501210420FFF73D
:100F90001FFB6846FFF773FA01208DF8040000205C
:100FA0008DF806008DF8070003208DF805004FF43A
:100FB0008040009069460448FFF7F4F94FF48041FF
:100FC0000148FFF75AFA1CBD000802402DE9F0471E
:100FD0008AB000274FF4E138002600BF0025A9465B
:100FE000AA4601210846FFF7F3FA01211020FFF776
:100FF0000FFB062202213B48FFF71CFA06220321C1
:101000003848FFF717FA00208DF8260001208DF8E8
:10101000270002208DF824000420089003208DF87A
:10102000250008A92F48FFF7BDF902208DF82400FC
:101030000820089008A92B48FFF7B4F96846FFF785
:10104000F7FA039F46B107EBC70000EB07104FEA22
:101050004801B0FBF1F407E007EBC70000EB071015
:101060004FEA8801B0FBF1F46420B4FBF0F01FFA02
:1010700080F9642000FB194546B1322000EBC50021
:101080006421B0FBF1F000F0070A07E0322000EB2A
:1010900005106421B0FBF1F000F00F0A0EB1012041
:1010A00000E00020ADF81000ADF81290ADF814A0EB
:1010B0000020ADF81600ADF81800ADF81C00ADF832
:1010C0001A0004A90848FFF7EDFC01221146064862
:1010D000FFF7D6FC02210448FFF7CEFC0AB0BDE8BA
:1010E000F0870000000002400010014070B5044687
:1010F0000D46E1B20748FFF7E7FC00BF02210548B3
:10110000FFF7C7FC0028F9D002210248FFF7B4FC22
:10111000204670BD00100140FFF777FBFFF725FF69
:1011200040F6FF70FFF711F9FFF700FA00BFFEE786
:10113000501100080000002020000000F40A000800
:10114000701100082000002020400000040B00085F
:10115000007A030A000000000102030401020304F4
:101160000607080900000000000000000000000061
:040000050800018965
:00000001FF
