:020000040800F2
:1000000040040020A101000849070008410700083A
:10001000450700081F060008D10B0008000000007B
:10002000000000000000000000000000850A000839
:100030002306000800000000C5070008ED0A0008BC
:10004000BB010008BB010008BB010008BB010008A0
:10005000BB010008BB010008BB010008BB01000890
:10006000BB010008BB010008BB010008BB01000880
:10007000BB010008BB010008BB010008BB01000870
:10008000BB010008BB01000811030008BB01000808
:10009000BB010008BB010008BB010008BB01000850
:1000A000BB010008BB010008BB010008BB01000840
:1000B000BB010008BB010008BB010008BB01000830
:1000C000BB010008BB010008BB010008BB01000820
:1000D000BB010008BB010008BB010008BB01000810
:1000E000BB010008BB010008BB010008BB01000800
:1000F000BB010008BB010008BB010008BB010008F0
:10010000BB010008BB010008BB010008BB010008DF
:10011000BB010008BB010008BB010008BB010008CF
:10012000BB010008BB010008BB010008BB010008BF
:10013000BB010008BB010008BB010008BB010008AF
:10014000BB010008BB010008BB010008BB0100089F
:10015000BB010008BB010008BB010008BB0100088F
:10016000BB010008BB010008BB010008BB0100087F
:10017000BB010008BB010008BB010008BB0100086F
:10018000BB010008BB010008DFF810D000F04CF8FC
:1001900000480047C1120008AFF30080400400206F
:1001A0000648804706480047FEE7FEE7FEE7FEE711
:1001B000FEE7FEE7FEE7FEE7FEE7FEE75D0B000871
:1001C000890100082DE9F05F0546002092469B4614
:1001D00088460646814640241BE02846414647465D
:1001E000224600F042F853465A46C01A914110D3B5
:1001F00011461846224600F029F82D1A67EB01082F
:100200004F4622460120002100F020F817EB00099C
:100210004E41201EA4F10104DFDC484631462A4647
:100220004346BDE8F09F0000064C074D06E0E0683D
:1002300040F0010394E8070098471034AC42F6D32D
:10024000FFF7A6FF5413000874130008202A04DBEC
:10025000203A00FA02F1002070479140C2F12003D9
:1002600020FA03F3194390407047202A04DB203A18
:1002700021FA02F00021704721FA02F3D040C2F1C6
:1002800020029140084319467047D0F888208A43DD
:10029000C0F88820704721B1026842F00102026074
:1002A00003E0026822F001020260704730B50346A5
:1002B000002032B1012A0DD0022A14D0032A24D101
:1002C0001AE0C1EBC10503F1140404EB8504E468F2
:1002D000A0B21BE0C1EBC10503F1140404EB8504DB
:1002E0002469A0B212E0C1EBC10503F1140404EBD0
:1002F00085046469A0B209E0C1EBC10503F11404EF
:1003000004EB8504A469A0B200E000BF00BF30BDCB
:1003100010B5002201210C48FFF7C8FF0B49086007
:1003200008460088C0F30A004FF4A57110FB01F0E5
:10033000C00A0749086004210348FFF7A6FF01200F
:100340000449086010BD000000200140200000208A
:1003500030000020140000202AB1D0F884300B4374
:10036000C0F8843004E0D0F884308B43C0F8843087
:1003700070470000D1E9003242EA83120B8942EA59
:1003800043520B7B42EA83720B8A42EAC3520B7DD3
:1003900042EA836202600D4A90420AD10C4A126E10
:1003A0000A4B94331A600A4A526E0346C3F89020EF
:1003B0000BE0084A904208D1054A926E054B9433EF
:1003C0001A60034AD26E1B1F1A607047002001405A
:1003D00000F0FF1F0024014070B5C1EBC10500F122
:1003E000140444F825201D06C1EBC10604EB860465
:1003F000A56070BDF0B5059C32B1012A43D0022A38
:100400007DD0032A7CD1C3E0C1EBC10600F1140505
:1004100005EB8605AD6825F03F06C1EBC10700F18D
:10042000140505EB8705AE60C1EBC10600F11405AC
:1004300005EB86056D6825F00F06C1EBC10700F1DD
:10044000140505EB87056E60C1EBC10600F11405CC
:1004500005EB8605AD681D43C1EBC10700F114062D
:1004600006EB8706B560C1EBC10600F1140505EB8C
:1004700086056D682543C1EBC10700F1140606EB44
:1004800087067560C6E0C1EBC10600F1140505EBF7
:100490008605AD6825F47C66C1EBC10700F1140543
:1004A00005EB8705AE60C1EBC10600F1140505EB55
:1004B00086056D6825F0F006C1EBC10700F1140553
:1004C00005EB87056E60C1EBC10600F1140505EB75
:1004D0008605AD6845EA8316C1EBC10700F1140536
:1004E00005EB8705AE60C1EBC10600F1140505EB15
:1004F00086056D6845EA0416C1EBC10701E006E018
:1005000087E000F1140505EB87056E6082E0C1EB22
:10051000C10600F1140505EB8605AD6825F47C36AF
:10052000C1EBC10700F1140505EB8705AE60C1EB17
:10053000C10600F1140505EB86056D6825F47066AB
:10054000C1EBC10700F1140505EB87056E60C1EB37
:10055000C10600F1140505EB8605AD6845EA0336D2
:10056000C1EBC10700F1140505EB8705AE60C1EBD7
:10057000C10600F1140505EB86056D6845EA042601
:10058000C1EBC10700F1140505EB87056E6041E082
:10059000C1EBC10600F1140505EB8605AD6825F435
:1005A0007C06C1EBC10700F1140505EB8705AE60C1
:1005B000C1EBC10600F1140505EB86056D6825F455
:1005C0007046C1EBC10700F1140505EB87056E60AD
:1005D000C1EBC10600F1140505EB8605AD6845EADF
:1005E0008346C1EBC10700F1140505EB8705AE603A
:1005F000C1EBC10600F1140505EB86056D6845EAFF
:100600000436C1EBC10700F1140505EB87056E60E8
:1006100000E000BF00BFF0BD01214160704700BF96
:10062000FEE7704701B502E00098401E0090009878
:100630000028F9D108BD000001B504490098086000
:1006400000BF024800680028FBD108BD1800002048
:10065000F0B50A4600210023002400BF3DE001253B
:1006600005FA01F3156805EA03049C4234D10568D4
:100670004F000326BE40B543056015794E00B540D6
:100680000668354305601579012D02D01579022DD4
:1006900016D185684F000326BE40B5438560557965
:1006A0004E00B540866835438560456801268E401A
:1006B000B5434560456896798E40B6B2354345608E
:1006C000C5684F000326BE40B543C560D5794E00CE
:1006D000B540C6683543C560491C1029BFD3F0BD7D
:1006E000F0B5002300244D07ED0E02FA05F3CE10FD
:1006F00000F1200555F826504E07F70E0F26BE4094
:10070000B543CF1000F1200646F82750CE1000F177
:10071000200555F8265045EA0304CE1000F12005C7
:1007200045F82640F0BD41837047018370474FF67E
:10073000FF7101600021017141718171C1717047C8
:1007400000BFFEE700BFFEE77047000070B5002164
:1007500000230F22C4781CB3174C246804F4E0640F
:10076000C4F5E064C4F30721C1F10404E3B20A4113
:1007700044789C40E1B28478144021430C07210E58
:100780000E4C05786155047804F01F050124AC4037
:1007900005786D11AD0005F1E025C5F8004109E0CF
:1007A000047804F01F050124AC40054D067876114D
:1007B00045F8264070BD00000CED00E000E400E0CC
:1007C00080E100E07047000070B509480468001D32
:1007D0000568001D066823462A46314605A000F03C
:1007E000F9F911A000F0F6F910A000F0F3F970BDCE
:1007F000107AFF1F0D0A435055203A2048433332E8
:1008000046343031582C204C51465036342C20552B
:100810004944203D2025303858202530385820259F
:100820003038580A0D0000000A0D00002A2A2A2A32
:100830002A2A2A2A2A2A2A2A2A2A2A2A2A2A2A2A18
:100840002A2A2A2A2A2A2A2A2A2A2A2A2A2A2A2A08
:100850002A2A2A2A2A2A2A2A2A2A2A2A2A2A2A2AF8
:100860002A2A2A2A2A2A2A2A2A0A0D0029B1064ACD
:1008700012680243044B1A6004E0034A1268824380
:10088000014B1A60704700002438024029B1064A23
:1008900012680243044B1A6004E0034A1268824360
:1008A000014B1A607047000034380240F0B5002157
:1008B00000220024022500260223324F3F6807F061
:1008C0000C0121B1042905D0082937D105E02E4FAC
:1008D000076036E02D4F076033E02A4F3F1F3F6827
:1008E000C7F38056274F3F1F3F6807F03F036EB1A5
:1008F000264FB7FBF3F7DFF88CC0ACF1040CDCF843
:1009000000C0CCF3881C07FB0CF40CE01E4FB7FBB7
:10091000F3F7DFF870C0ACF1040CDCF800C0CCF3E6
:10092000881C07FB0CF4174F3F1F3F68C7F30147B4
:100930007F1C7D00B4FBF5F7076002E0124F0760F3
:1009400000BF00BF0F4F3F6807F0F0010909104FCB
:100950007A5C0768D74047600A4F3F6807F4E05168
:10096000890A0B4F7A5C4768D7408760054F3F681C
:1009700007F46041490B064F7A5C4768D740C7606F
:10098000F0BD0000083802400024F40000127A0094
:100990000400002010B501460022002300204A1167
:1009A000012A02D10A4C236808E0022A03D1084C2C
:1009B0004C34236802E0064C5034236801F01F02D7
:1009C000012494401C400CB1012000E0002010BD27
:1009D000003802400248006800F00C007047000038
:1009E0000838024001460020034A106820F0F00059
:1009F0000843106070470000083802400021024A96
:100A000011701146087070470238024001460020FC
:100A1000034A106820F4E05008431060704700005B
:100A20000838024001460020034A106820F4604064
:100A300040EAC1001060704708380240014908666A
:100A4000704700000000474270B5049C41EA8215DF
:100A50000126C6EB530645EA0645054345EA04650B
:100A6000014E356070BD0000043802400146002090
:100A7000034A106820F0030008431060704700002C
:100A800008380240704708B50120FFF7B7FF00BFE4
:100A90003120FFF77FFF0028FAD00020FFF7CEFFBC
:100AA0000020FFF79FFF4FF4A050FFF7AFFF4FF478
:100AB0008050FFF7B7FF082002234FF4A8720146C9
:100AC0000090C004FFF7C0FF0120FFF7B7FF00BF91
:100AD0003920FFF75FFF0028FAD00220FFF7C6FF9A
:100AE00000BFFFF777FF0828FBD108BD10B500F065
:100AF00037F810BD30B5164800684FF47A72B0FB75
:100B0000F2F1481EB0F1807F01D301201BE0481EA6
:100B10004FF0E022506150170F22002807DA130728
:100B20001D0E0C4B00F00F04241F1D5503E013078E
:100B30001C0E094B1C5400BF00204FF0E0229061B6
:100B400007201061002008B100BFFEE730BD0000A3
:100B50000000002018ED00E000E400E07047000015
:100B60000448006820B103480068401E014908603D
:100B70007047000018000020026A8A430262704732
:100B80001AB103680B43036002E003688B43036000
:100B9000704702460020D3690B400BB1012000E0F2
:100BA000002070470A885202CB8842EAC3120B89A0
:100BB00042EA83124B891A438B891A4302604A889E
:100BC000C2608A8802617047C1F30802826270477E
:100BD00000BFFEE70FB4054B10B503A9044A029805
:100BE00000F018F810BC5DF814FB00009512000826
:100BF0001C00002002E008C8121F08C1002AFAD118
:100C000070477047002001E001C1121F002AFBD18C
:100C1000704700002DE9FF4F8DB00F4605460026B6
:100C200006E025280BD0DDE90F1290476D1C761CDD
:100C300028780028F5D111B03046BDE8F08F0024A7
:100C4000A246A1460122E94900E0044315F8013F0C
:100C5000203B02FA03F00842F7D128782A2810D066
:100C60006FF02F022878A0F13001092914D80AEB7F
:100C70008A0102EB410144F0020400EB010A6D1C01
:100C8000F0E701CF5FEA000A03D544F40054CAF14B
:100C9000000A44F002046D1C28782E2817D115F89C
:100CA000010F44F004042A280ED06FF02F02287898
:100CB000A0F1300109290AD809EB890102EB4101B1
:100CC00000EB01096D1CF2E757F8049B6D1C2878B6
:100CD0006C280FD006DC4C2817D068280DD06A2865
:100CE00014D104E0742810D07A280FD10DE044F418
:100CF00000140AE044F4801401E044F440146978DC
:100D0000814202D104F580146D1C6D1C28786E2878
:100D10001ED00CDC632830D004DC00288BD058288F
:100D200011D19FE0642867D069280CD164E0732852
:100D30002DD004DC6F2872D0702804D194E075287F
:100D40006ED078286DD0DDE90F129047761C4BE10C
:100D5000C4F30250022806D0032809D0042801CF8A
:100D600009D0066040E101CFF117C0E900613BE125
:100D700001CF068038E1067036E117F8040B8DF8D4
:100D8000000000208DF80100EB46012003E057F839
:100D900004BB4FF0FF3061074FF0000102D40DE0BB
:100DA00008F10101884649450FDA8045F8DB1BF858
:100DB00008100029F4D108E008F1010188468142B9
:100DC000FADB1BF808100029F6D1DDE90F23AAEBA6
:100DD00008008146214600F031F9304400EB080656
:100DE00004E0DDE90F121BF8010B9047B8F1010890
:100DF000F7D221464846F2E00A21C4F302524FF0EE
:100E0000000B0891022A04D001CFC117032A09D090
:100E10000AE0FF1D27F00707F7E8020108E02CE0D1
:100E20001EE01FE000B2C117042A01D140B2C11771
:100E3000021E71F1000206DA0023D0EB030063EB1F
:100E400001012D2202E0220504D52B228DF8242059
:100E5000012203E0E20701D02022F7E7904653E0A9
:100E60000A210BE0102109E010214FF0000B44F0A3
:100E700004044FF00809089103E008214FF0000B2B
:100E80000891C4F30252022A04D001CF0021032AA0
:100E900006D006E0FF1D27F00707F7E8020103E090
:100EA00080B2042A00D1C0B24FF0000822072BD52F
:100EB0002A78702A07D0DDF820C08CF0100C5CEA8C
:100EC0000B0C05D00EE040228DF82420012208E012
:100ED00050EA010306D030238DF824308DF8252008
:100EE00002229046089B83F0080353EA0B030BD1C0
:100EF00050EA010201D1620706D530228DF8242084
:100F00004FF00108A9F101092A78582A04D038A223
:100F10000B9208AA0A920BE03AA2F9E75B46089AFC
:100F2000FFF750F90B9B9B5C0A9A521E0A921370B2
:100F300050EA0102F2D10A98ADEB000000F1200B5B
:100F4000600702D524F4803401E04FF00109D9454F
:100F500002DDA9EB0B0000E0002000EB0B01414497
:100F60000890AAEB010AE00306D4DDE90F2321462D
:100F7000504600F063F806444FF0000908E009A964
:100F800011F80900DDE90F12904709F10109761CFB
:100F9000C145F4DBE0030CD5DDE90F2321465046C3
:100FA00000F04CF8064404E0DDE90F1230209047D1
:100FB000761C0899481E08900029F5DC08E00A987C
:100FC0000A990078491C0A91DDE90F129047761CB6
:100FD000BBF10001ABF1010BF1DC21465046DDE92C
:100FE0000F2300F019F806446D1C21E609280100C2
:100FF000303132333435363738396162636465668F
:101000000000000030313233343536373839414250
:1010100043444546000000002DE9F0410446002508
:101020001E461746880404D405E039462020B04700
:101030006D1C641EF9D52846BDE8F0812DE9F0410C
:10104000044600251E469046C80301D5302700E01F
:101050002027880404D505E041463846B0476D1C7A
:10106000641EF9D52846BDE8F08110B5FFF742FDB2
:1010700000F080F800F05CF800F002F810BD00000D
:1010800000B58BB001210846FFF7F0FB09A8FFF778
:101090004EFB4FF48070099003208DF8280000204B
:1010A0008DF82B0003208DF8290009A91E48FFF7B1
:1010B000CFFA01210802FFF7E9FB0420039020206A
:1010C00004900020059006900790089003A9174807
:1010D000FFF750F901231A4619461448FFF77CF927
:1010E0000F2000231A46012100901048FFF782F9D3
:1010F000012204210D48FFF72FF901210B48FFF7CA
:10110000CAF80A48FFF788FA12208DF808000F2065
:101110008DF809008DF80A0001208DF80B0002A857
:10112000FFF714FB0BB000BD00000240002001409F
:101130001CB501210420FFF799FB6846FFF7F7FA79
:1011400001208DF8040000208DF806008DF80700BE
:1011500003208DF805004FF4804000906946044854
:10116000FFF776FA4FF480410148FFF7DCFA1CBD27
:10117000000802402DE9F0478AB000274FF4E1381B
:10118000002600BF0025A946AA4601210846FFF710
:101190006DFB01211020FFF779FB062202213B485D
:1011A000FFF79EFA062203213848FFF799FA00203C
:1011B0008DF8260001208DF8270002208DF82400EC
:1011C0000420089003208DF8250008A92F48FFF778
:1011D0003FFA02208DF824000820089008A92B4827
:1011E000FFF736FA6846FFF761FB039F46B107EB4E
:1011F000C70000EB07104FEA4801B0FBF1F407E02D
:1012000007EBC70000EB07104FEA8801B0FBF1F4D1
:101210006420B4FBF0F01FFA80F9642000FB19454C
:1012200046B1322000EBC5006421B0FBF1F000F0C4
:10123000070A07E0322000EB05106421B0FBF1F053
:1012400000F00F0A0EB1012000E00020ADF8100000
:10125000ADF81290ADF814A00020ADF81600ADF86E
:101260001800ADF81C00ADF81A0004A90848FFF7F3
:1012700099FC012211460648FFF782FC022104482E
:10128000FFF77AFC0AB0BDE8F087000000000240DA
:101290000010014070B504460D46E1B20748FFF763
:1012A00093FC00BF02210548FFF773FC0028F9D02A
:1012B00002210248FFF760FC204670BD001001408B
:1012C000FFF7E1FBFFF7D1FE40F6FF70FFF7AAF949
:1012D000FFF77AFA24E04FF480411248FFF723FA2F
:1012E0006420FFF7A9F94FF480410E48FFF71DFA7B
:1012F0006420FFF7A1F90C48006888B100200A4972
:1013000008600A4802680A4801680AA0FFF762FC00
:10131000002007490860054908600D48FFF77CF97F
:10132000D9E700000008024014000020300000202F
:10133000200000200D0A414443313A4144435F44B8
:1013400041545B305D203D2025752025750A0D0038
:10135000002001407413000800000020200000005D
:10136000F40B000894130008200000202004000063
:10137000040C0008007A030A0000000001020304C4
:101380000102030406070809000000000000000035
:041390000000000059
:040000050800018965
:00000001FF
